:020000040800F2
:100000000008002089010008910100089301000800
:100010009501000897010008990100080000000000
:100020000000000000000000000000009B0100082C
:100030009D010008000000009F010008A1010008C8
:10004000A3010008A3010008A3010008A301000800
:10005000A3010008A30100083902000851020008AA
:1000600069020008A5020008BD020008A3010008FB
:10007000A3010008A3010008A3010008A3010008D0
:10008000A3010008A3010008A3010008A3010008C0
:10009000A3010008A3010008A3010008F902000859
:1000A000A3010008A3010008A3010008A3010008A0
:1000B0009D0F0008BD0F0008E10F0008A301000814
:1000C000A3010008A3010008A3010008A301000880
:1000D000A3010008FD0F00081910000835100008E2
:1000E000A3010008A3010008A301000800F002F822
:1000F00000F03AF80AA090E8000C82448344AAF188
:100100000107DA4501D100F02FF8AFF2090EBAE885
:100110000F0013F0010F18BFFB1A43F0010318473B
:1001200098380000B8380000103A24BF78C878C169
:10013000FAD8520724BF30C830C144BF04680C60ED
:10014000704700000023002400250026103A28BF35
:1001500078C1FBD8520728BF30C148BF0B60704739
:100160001FB51FBD10B510BD00F038F81146FFF7E0
:10017000F7FF01F047FC00F056F803B4FFF7F2FF79
:1001800003BC00F0DBFF0000094880470948004736
:10019000FEE7FEE7FEE7FEE7FEE7FEE7FEE7FEE737
:1001A000FEE7FEE704480549054A064B7047000094
:1001B0003D0F0008ED0000080002002000080020AC
:1001C000000400200004002070477047704770470B
:1001D0007047000000487047A00100207546FFF7F7
:1001E000F9FFAE4605006946534620F007008546F4
:1001F00018B020B5FFF7D6FFBDE820404FF000064D
:100200004FF000074FF000084FF0000B21F00701FE
:10021000AC46ACE8C009ACE8C009ACE8C009ACE841
:10022000C0098D46704710B50446AFF300802046E4
:10023000BDE81040FFF7A1BF0448006800F00100CE
:1002400010B101200149086070470000140401400A
:100250000448006800F0020010B102200149086063
:10026000704700001404014010B50C48006800F00D
:10027000040090B10321002001F096FA28B108484B
:100280000068401E0649086004E005480068401CFC
:100290000349086004200149086010BD14040140AE
:1002A000040000200448006800F0080010B1082095
:1002B00001490860704700001404014010B50C4863
:1002C000006800F0100090B10521002001F06CFAE8
:1002D00028B108480068401C0649086004E0054849
:1002E0000068401E0349086010200149086010BDE5
:1002F00014040140080000202DE9FF5FB5480068A4
:1003000000F0200010B12020B2490860B148006818
:1003100000F0400010B14020AE490860AD480068D0
:1003200000F0800000287CD000F046FB00F088F947
:10033000A948B0F9000002F09FFD019002F004FC12
:100340004FF06632A54BCDE9020102F087F88046F6
:10035000A34AA44B02F004FA06460F46A2480068DE
:1003600002F0F2FB824632463B4601F0C7FF0446EC
:1003700001F092FF9C4908609C48B0F9000002F02F
:100380007BFD019002F0E0FB80464FF06632934B1C
:1003900002F064F80646924A924B02F0E1F9824676
:1003A0008B469348006802F0CFFB52465B46CDE98E
:1003B000020101F0A3FF044601F06EFF8C490860C2
:1003C0008C48B0F9000002F057FD019002F0BCFB30
:1003D00082464FF06632814B02F040F88046804AF8
:1003E000804B02F0BDF9CDE902018348006802F0BC
:1003F000ABFB0646DDE9022301F080FF044601F075
:100400004BFF7D4908607D48B0F9000002F034FDE3
:1004100083467B48B0F9000002F02EFD5946039058
:1004200000E0C3E002F02AFC824602F08DFB804629
:1004300000F086FE0646734A734B02F091F90446BB
:1004400001F02AFF714908606C48B0F9000002F021
:1004500013FD83466E48B0F9000002F00DFD5946C9
:10046000039002F00BFC824602F06EFB804600F027
:1004700067FE81F000410646624A634B02F070F964
:10048000044601F009FF634908606148B0F90000C3
:1004900002F0F2FC83465A48B0F9000002F0ECFC8E
:1004A0005946039002F0EAFB824602F04DFB0646F5
:1004B00000F046FE0446534A534B02F051F9804681
:1004C00001F0EAFE544908605448B0F9000002F017
:1004D000D3FC039002F038FB804689465048B0F9BF
:1004E000000002F0C9FC039002F02EFB06464246D3
:1004F0004B4600F035FF0446424A434B02F030F9C8
:10050000824601F0C9FE474908603348B0F900004F
:1005100002F0B2FC814602F017FB07464FF066324C
:100520002E4B01F09BFF054601F0B6FE0446224625
:10053000364801683C4800F09FF93C4908602B4868
:10054000B0F9000002F098FC814602F0FDFA07467F
:100550004FF06632214B01F081FF054601F09CFE11
:10056000044622462B480168314800F085F931499C
:1005700008602048B0F9000002F07EFC814602F0DD
:10058000E3FA07464FF06632144B01F067FF054669
:1005900001F082FE0446224622480168264800F007
:1005A0006BF92649086080200A49086009480068FC
:1005B00000F4807018B14FF4807006490860054857
:1005C000006800F4007018B14FF400700149086031
:1005D000BDE8FF9F14040140CE0000206666304055
:1005E0007B14AE47E17A743FD4000020D000002095
:1005F000D8000020D2000020DC000020CC00002029
:10060000CA000020D9CEF753E3A54C40E0000020FB
:10061000C8000020E4000020E8000020FA000020CC
:10062000F80000200001002040000020EC00002025
:1006300070000020F000002010000020F4000020D6
:1006400070B5032000F03AF80446042000F036F8B4
:10065000054645EA042000B20E490880072000F054
:100660002DF80446082000F029F8054645EA042044
:1006700000B209490880052000F020F80446062051
:1006800000F01CF8054645EA042000B20349088042
:1006900070BD0000F8000020FA000020FC000020DF
:1006A00010B5F821002000F029F82021012000F0E9
:1006B00025F80021022000F021F810BD70B5044695
:1006C00000F09BF83C2000F077F800F0BDF82046E1
:1006D00000F072F800F0B8F800F0A5F800F08DF81E
:1006E0003D2000F069F800F0AFF800F045F805464D
:1006F00000F031F800F097F8284670BD70B5054657
:100700000C4600F07AF83C2000F056F800F09CF817
:10071000284600F051F800F097F8204600F04CF819
:1007200000F092F800F07FF870BD10B502220A21A7
:10073000012001F04BF802220B21012001F046F8C4
:1007400001220B21104601F013F901220A21104663
:1007500001F00EF910BD10B501220B21104601F079
:1007600007F901220A21104601F002F900220A21AC
:10077000012001F0FDF810BD70B5002501220B210C
:10078000104601F0F5F8002412E001220A2110467B
:1007900001F0EEF80B21012001F006F810B18020E5
:1007A0002041054300220A21012001F0E1F8641CE8
:1007B000082CEADB284670BD70B50546002419E018
:1007C00080202041284028B101220B21104601F051
:1007D000CFF804E000220B21012001F0C9F801222A
:1007E0000A21104601F0C4F800220A21012001F07C
:1007F000BFF8641C082CE3DB70BD10B501220B218F
:10080000104601F0B5F801220A21104601F0B0F8B7
:1008100000220B21012001F0ABF800220A21012067
:1008200001F0A6F810BD10B500220B21012001F047
:100830009FF801220A21104601F09AF801220B21AB
:10084000104601F095F810BD10B5002401220B21CF
:10085000104601F08DF801220A21104601F088F8B7
:100860000B21012000F0A0FF044600220A210120F4
:1008700001F07EF8204610BD2DE9F05F04460D46DC
:1008800016463046E16A02F05FFC8046E16902F0FC
:1008900053FB0746A16A02F083F9A062E06AE062B6
:1008A000D4E9060102F048FB8246E16902F044FB0C
:1008B0008046D4E9040102F073F98346E16902F04D
:1008C0003BFB8246E16802F034FC8146414602F07F
:1008D00067F90746216802F063F9E060D4E9060190
:1008E00002F02AFB0746216902F023FC2061D4E9CB
:1008F000060102F021FB0746616902F01AFC606103
:100900006168A06902F04CF9A061D4E9021002F01C
:1009100047F907463946E06802F0B0F92062D4E9A9
:10092000021002F03DF907463946606902F0A6F967
:1009300060622846A16A02F007FC8046216A02F044
:10094000FBFA0746A16A02F02BF9A0622846A16AC9
:1009500002F0FAFB8046616A02F0EEFA0746E16AAD
:1009600002F01EF9E0624FF07E50216A02F0ECFBCB
:100970000746E16802F0E0FAE0604FF07E50216A3D
:1009800002F0E2FB0746216902F0D6FA2061616AB3
:10099000E06802F0D1FA0746616902F0CAFB6061C3
:1009A000616A206902F0C8FA0746A16902F0C1FB3A
:1009B000A061A06ABDE8F09F70B53B2000F072F81E
:1009C00004463C2000F06EF8054645EA042000B2DB
:1009D000214908803D2000F065F804463E2000F0E3
:1009E00061F8054645EA042000B21C4908803F2012
:1009F00000F058F80446402000F054F8054645EA57
:100A0000042000B216490880432000F04BF8044649
:100A1000442000F047F8054645EA042000B2114999
:100A20000880452000F03EF80446462000F03AF8E1
:100A3000054645EA042000B20B490880472000F033
:100A400031F80446482000F02DF8054645EA042018
:100A500000B20649088070BDC8000020CA0000200E
:100A6000CC000020CE000020D0000020D2000020CA
:100A700010B502216B2000F035F82721192000F075
:100A800031F800211A2000F02DF818211B2000F069
:100A900029F800211C2000F025F80121382000F061
:100AA00021F810BD70B50446FFF7A7FED020FFF770
:100AB00083FEFFF7C9FE2046FFF77EFEFFF7C4FE68
:100AC000FFF7B1FEFFF799FED120FFF775FEFFF7A4
:100AD000BBFEFFF751FE0546FFF73DFEFFF7A3FE05
:100AE000284670BD70B505460C46FFF786FED0203F
:100AF000FFF762FEFFF7A8FE2846FFF75DFEFFF74F
:100B0000A3FE2046FFF758FEFFF79EFEFFF78BFE81
:100B100070BD0000014607238B431A02054B18687D
:100B20004FF6FF0318401043034B1843014B186066
:100B3000704700000CED00E00000FA0570B50546B6
:100B40000C460420FFF7E6FF0E48005D00F00106AA
:100B500046EA0510C1B20B4801552046E21704EBE6
:100B6000D2625211A4EB421301229A402146E317AC
:100B700004EBD3635B119B0003F1E023C3F8002176
:100B800070BD000000E400E070B500240EE000211C
:100B9000204600F0D1F8002504E0002000F04AF9DA
:100BA000681CC5B2802DF8DB601CC4B2082CEEDBDB
:100BB00070BD10B502220821012000F007FE0222BC
:100BC0000921012000F002FE01220821104600F058
:100BD000CFFE01220921104600F0CAFE10BD70B5FB
:100BE0000546002413E08020204100EA0502092187
:100BF000012000F0BDFE01220821104600F0B8FEE1
:100C000000220821012000F0B3FE601CC4B2082CB1
:100C1000E9DB01220821104600F0AAFE002208218B
:100C2000012000F0A5FE70BD10B50122092110467B
:100C300000F09EFE01220821104600F099FE0022DD
:100C40000921012000F094FE00220821012000F07B
:100C50008FFE10BD10B500220921012000F088FE92
:100C600001220821104600F083FE012209211046CE
:100C700000F07EFE10BD70B5002406E0002500E007
:100C80006D1CB5F57A7FFBD3641CB4F57A7FF5D380
:100C9000FFF78FFFAE2000F0BDF8D52000F0BAF8C6
:100CA000802000F0B7F8A82000F0B4F83F2000F052
:100CB000B1F8D32000F0AEF8002000F0ABF84020EF
:100CC00000F0A8F8A12000F0A5F8C82000F0A2F8D4
:100CD000DA2000F09FF8122000F09CF8812000F04C
:100CE00099F8CF2000F096F8D92000F093F8F12081
:100CF00000F090F8DB2000F08DF8302000F08AF84A
:100D0000A42000F087F8A62000F084F88D2000F0E1
:100D100081F8142000F07EF8AF2000F07BF8FFF798
:100D200033FF70BD10B50246012000E050430B1E9A
:100D3000A1F10101FAD110BD70B505460C4645F090
:100D4000B00000F067F8102141EA141000F062F8DA
:100D500004F00F0000F05EF870BD00002DE9F041D6
:100D600005460E461746721ED206110E6A1E520620
:100D7000100EFFF7E1FF002409E0A7F12001134A5C
:100D800002EB0111085D00F055F8601CC4B2082C9C
:100D9000F3DB721ED206110E6A1E012303EB420220
:100DA000D0B2FFF7C9FF00240BE0A7F12001074AEA
:100DB00002EB011204F10801505C00F03BF8601CEA
:100DC000C4B2082CF1DBBDE8F0810000223300083A
:100DD0002DE9F04780460E4617461D46002415E0D3
:100DE000281B411E0A20FFF79DFFB7FBF0F00A21E8
:100DF000B0FBF1F201FB120000F130093019C1B271
:100E00004A464046FFF7AAFF601CC4B2AC42E7DB8B
:100E1000BDE8F08710B50446FFF706FF7820FFF71E
:100E2000DEFE0020FFF7DBFE2046FFF7D8FEFFF7CF
:100E300011FF10BD10B50446FFF7F6FE7820FFF74E
:100E4000CEFE4020FFF7CBFE2046FFF7C8FEFFF79F
:100E500001FF10BD10B500F001F810BD0CB5002069
:100E6000019000903348006840F4803031490860B8
:100E700000BF3048006800F4003000900198401C2A
:100E80000190009818B90198B0F5A06FF1D12948E8
:100E9000006800F4003010B10120009001E0002053
:100EA00000900098012843D12348006840F01000CA
:100EB000214908600846006820F0030008600846E1
:100EC000006840F0020008601A484068194948600C
:100ED0000846406848600846406840F480604860C2
:100EE0000846406820F47C1048600846406840F49A
:100EF000E81048600846006840F08070086000BF55
:100F00000C48006800F000700028F9D009484068DB
:100F100020F00300074948600846406840F002009E
:100F2000486000BF0348406800F00C000828F9D171
:100F30000CBD0000001002400020024010B5134814
:100F4000006840F0010011490860084640681049F7
:100F500008400E494860084600680E4908400B49A1
:100F600008600846006820F4802008600846406851
:100F700020F4FE0048604FF41F008860FFF76AFF0E
:100F80004FF000600449086010BD000000100240EE
:100F90000000FFF8FFFFF6FE08ED00E04FF0804094
:100FA000008A00F0010038B14FF08040008A20F044
:100FB00001004FF0804108827047000010B50748DB
:100FC000008800F0010038B100F05EFE03480088A0
:100FD00020F001000149088010BD0000100400400D
:100FE0000548008800F0010028B10348008820F07F
:100FF000010001490880704710080040054800883A
:1010000000F0200028B10348008820F020000149AA
:1010100008807047003801400548008800F0200033
:1010200028B10348008820F020000149088070475B
:10103000004400400548008800F0200028B1034823
:10104000008820F0200001490880704700480040D7
:10105000490050EAC12018BF04204A0D18BF40F0D3
:10106000010040F2FF72B2EB515F08BF40F0020096
:10107000012808BF052070472DE9F0414F1E00EB05
:10108000C7010446D1E9000115461E4637F00602A5
:101090000DD02A46334601F063FB7F1E04EBC703E5
:1010A000D3E9002301F02AF937F00602F1D1022F2B
:1010B00025D0042F13D0062F18BFBDE8F0812A4693
:1010C000334601F04DFBD4E90A2301F017F92A4613
:1010D000334601F045FBD4E9082301F00FF92A4615
:1010E000334601F03DFBD4E9062301F007F92A4617
:1010F000334601F035FBD4E9042301F0FFF82A461A
:10110000334601F02DFBD4E9022301F0F7F82A461B
:10111000334601F025FBD4E90023BDE8F04101F09E
:10112000EDB8012202F0B7B801F0E8B8024A002099
:10113000110702F0B0B8000001FDFFFF00BF7047CB
:101140002DE9F84F04460D4621F000400091734907
:10115000814211DC7249884201DC06D12CB1204663
:101160002946BDE8F84FFFF7DCBF6E48002DCCBF25
:101170006D496E49BDE8F88F6D49814211DD6D49B9
:101180008142D8BF4FF0FF366DDD20462946FFF77C
:101190005FFF042808BFFFF7C9FF20462946BDE8C6
:1011A000F88F6549654F25F00045814233DD64497C
:1011B000814219DD002632464FF080432046294601
:1011C00001F09CF880468A4601222046294602F01A
:1011D00062F800223B4601F0CDFB4246534601F047
:1011E0003DF904460D463EE001260022BA463B4644
:1011F0002046294601F082F880460F4600225346D9
:101200002046294601F0B6FB42463B4601F026F94E
:1012100004460D4627E04B4981421BDDDFF828A13B
:101220000226002253462046294601F099FA002260
:101230003B4601F063F880460F46002253462046A5
:10124000294601F097FB42463B4601F007F9044668
:101250000D4608E0032622462B4600203B4901F0BC
:10126000FDF804460D4622462B461046194601F06D
:1012700077FA8B46824602460B4601F071FA074622
:101280000246334888460B4606217844FFF7F4FEB1
:1012900052465B4601F064FA82462E488B463A4637
:1012A000434605217844FFF7E7FE3A46434601F0FE
:1012B00057FA02460B46002E504659460CDA01F00A
:1012C0001DF822462B4601F04BFA01B022462B4670
:1012D000BDE8F04F01F042BB01F010F822462B466A
:1012E00001F03EFA1C4A7A4402EBC603D3E900231C
:1012F00001F040FB22462B4601F03CFB174A7A44A2
:1013000002EBC603D3E9002301F028FB009A002A70
:10131000B8BF81F00041BDE8F88F00000000104424
:101320000000F07F182D4454FB21F93FFB21F9BF49
:101330000000DC3F0000203E0000F33F0000F03FD3
:101340000000E63F008003400000F83F0000F0BFCF
:10135000F2260000B02600004E26000016260000EF
:101360002DE9F04D9446CCF1000423F000464CEA00
:101370000404524F46EAD4749A46884621F000424B
:10138000BC4206D8454240EA050442EAD474BC4255
:1013900004D9BDE8F04D6246FFF7C6BEAAF140553C
:1013A000A5F17F6555EA0C040BD0022404EAAA7467
:1013B000434DDFF810E144EAD87452EA000B04D040
:1013C0000CE0BDE8F04DFFF7BBBE002C14BF012CB4
:1013D000BDE8F08D022C30D0032C32D056EA0C0B35
:1013E0000AD0BE4220D1BA4209D126F0804622F06E
:1013F00080423346114617E000291ADB25E0DFF86A
:10140000C8B0FB44002C04BFDBE90001BDE8F08D4F
:10141000012C02BFDBE9000181F00041BDE8F08D45
:10142000022C0AD0032C0CD0BA4212D1B8F1000F12
:101430000BDA23482549BDE8F08D28462449BDE84C
:10144000F08D28467146BDE8F08D1D482149BDE864
:10145000F08D921B12153C2AC4BF19481D490EDCA1
:10146000BAF1000FBEBF12F13C0F0020014606DBAF
:10147000624600F0F3FF21F00041FFF761FE002C0F
:1014800008BFBDE8F08D012C04BF81F00041BDE82C
:10149000F08D114A114B022C07D001F06BFA2A464D
:1014A000BDE8F04D0A4B01F065BA01F063FA2A4637
:1014B000BDE8F04D064B01F051BA00000000F07F8E
:1014C000182D4454FB2109C0AA250000FB21F9BFB7
:1014D000FB210940FB21F93F075C143326A6A13C00
:1014E00000B5034603E04FF47A7000F005F8181ECB
:1014F000A3F10103F7D100BD00EBC001C9004FF01B
:10150000E0225161002191610521116100BF4FF07E
:10151000E021096901F480310029F8D004214FF05D
:10152000E0221161704710B500220121062000F071
:1015300011F801220321002000F048F900220121C6
:101540000C2000F007F801220521002000F03EF9F0
:1015500010BD00002DE9F04704460E461746032152
:1015600094FBF1F0C11700EB91718910A0EB8101A0
:1015700089064FEA1168032194FBF1F0C11700EBD3
:101580009171C1F38705204600F06AF831488069FF
:1015900040F001002F4988614FEAB13050F8250032
:1015A0000F2101FA08F188432B4941F82500032057
:1015B00094FBF0F100FB114088B1032094FBF0F1A3
:1015C00000FB1140401E012101FA00F000FA08F072
:1015D000214951F8251001431F4840F825100320E8
:1015E00094FBF0F1012088401C49096808431B491D
:1015F000086066B9032094FBF0F101208840174988
:101600000831096808431549083108600BE00320D8
:1016100094FBF0F10120884010490C31096808431F
:101620000E490C310860032094FBF0F004280ADC1A
:10163000032094FBF0F0801D00F0FF094946384676
:10164000FFF77CFA03E017213846FFF777FABDE889
:10165000F087000000100240080001400004014033
:1016600010B50446182C12D2DFE804F00C12181E34
:10167000242A30363C42484E545A60666C72787E5A
:10168000848A909601220021084600F09FF889E0A4
:1016900001220021104600F099F883E00122002188
:1016A000022000F093F87DE001221146002000F0B6
:1016B0008DF877E001221146104600F087F871E0BE
:1016C00001221146022000F081F86BE00122022184
:1016D000002000F07BF865E001220221104600F0B6
:1016E00075F85FE001220221084600F06FF859E02A
:1016F00001220321002000F069F853E001220321B8
:10170000104600F063F84DE001220321022000F0B2
:101710005DF847E001220421002000F057F841E085
:1017200001220421104600F051F83BE0012204217F
:10173000022000F04BF835E001220521002000F0E6
:1017400045F82FE001220521104600F03FF829E07E
:1017500001220521022000F039F823E001220621B0
:10176000002000F033F81DE001220621104600F0B1
:101770002DF817E001220621022000F027F811E0E1
:1017800001220721002000F021F80BE001220721AF
:10179000104600F01BF805E001220721022000F0AE
:1017A00015F800BF00BF10BD10B50246064850F83E
:1017B0002200806801248C4000EA04030BB1012060
:1017C00010BD0020FCE70000A000002070B5654CB3
:1017D000A469042585402C43624DAC6108295DDA7B
:1017E000614C54F8204024688E000F25B540AC436E
:1017F0005D4D55F820502C601AB1032A01D0022A01
:101800000FD10124944044F003048D00AC40564DA8
:1018100055F820502D682C43534D55F820502C601E
:101820009FE0012A01D0042A2AD14F4C54F82040CD
:1018300024688E000825B5402C434B4D55F82050A8
:101840002C60012A0ED1484C54F82040E468012550
:101850008D4024EA050301248C401C43424D55F879
:101860002050EC60042A7CD13F4C54F82040E568BD
:1018700001248C40A5433C4C54F82040E56070E0C6
:10188000042494408D00AC40374D55F820502D680D
:101890002C43354D55F820502C6062E0324C54F802
:1018A00020406468A1F10805AE000F25B540AC43A7
:1018B0002D4D55F820506C601AB1032A01D0022A30
:1018C00011D10124944044F00304A1F10805AD00B6
:1018D000AC40254D55F820506D682C43224D55F8ED
:1018E00020506C603DE0012A01D0042A2AD11E4C10
:1018F00054F820406468A1F10805AE000825B54001
:101900002C43194D55F820506C60012A0CD1174C0E
:10191000256801248C4025EA040301248C401C43E3
:10192000114D55F82050EC60042A1AD10E4C54F891
:101930002040E46801258D40AC430B4D55F8205004
:10194000EC600EE004249440A1F10805AD00AC4029
:10195000054D55F820506D682C43034D55F8205027
:101960006C6070BD00100240A00000200C08014017
:1019700030B57AB10D4C54F82040E46801258D4013
:1019800024EA050301248C401C43084D55F82050DF
:10199000EC600AE0054C54F82040E46801258D40D5
:1019A000AC43024D55F82050EC6030BDA000002043
:1019B00010B501220C211046FFF708FF01220D216E
:1019C0001046FFF703FF01220E211046FFF7FEFE2F
:1019D00001220F211046FFF7F9FE01220821002005
:1019E000FFF7F4FE01220D210220FFF7EFFE012296
:1019F0000E210220FFF7EAFE01220F210220FFF74D
:101A0000E5FE10BD08B5FFF736F900F087F8FFF7DF
:101A10008AFD00224FF4E131104600F0DFFB1D4843
:101A20001D4B1A46012100901C4800F09BF91948F3
:101A3000194B1A4601210090194800F093F94FF014
:101A40007C5000234FF0804219460090154800F06A
:101A500089F9FFF7ADFFFEF768FEFFF709F8FEF71B
:101A60001FFE002211461620FFF774FD00220A21F6
:101A7000012000F02BFB0CE0FEF79EFF05230A4837
:101A8000B0F9002001210846FFF7A2F91420FFF762
:101A900027FDF1E70000A0400000204104010020E4
:101AA000380100206C010020CE00002010B5044653
:101AB000A2B20021084600F07FFA09480278062108
:101AC0000020FFF755FF0648007808B9012000E024
:101AD0000020024607210020FFF74AFF10BD00004A
:101AE0000000002010B50446A2B20121002000F041
:101AF00063FA0948027800210120FFF739FF064800
:101B0000007808B9012000E00020024601210846C3
:101B1000FFF72EFF10BD00000100002010B54FF4AC
:101B20007A720021084600F039F900220621104699
:101B3000FFF74CFE002207211046FFF747FE4FF447
:101B40007A720121002000F029F9002211460120BB
:101B5000FFF73CFE002201210846FFF737FE10BDCB
:101B600070B505460C46002D08DB012011490870B0
:101B7000284601F081F91049086007E000200D496E
:101B80000870684201F078F90B490860002C08DB06
:101B900001200A490870204601F06EF908490860E2
:101BA00007E0002005490870604201F065F904492A
:101BB000086070BD0000002004010020010000202A
:101BC000380100202DE9F0410446D4E9000101F07C
:101BD000BBFAA060206B01282DD1D4E9020101F0ED
:101BE000B3FA0546616901F0A7F92062A168A0690E
:101BF00001F0A2F9A0624FF08040E16801F09CF989
:101C00000746A16801F095FA0646216900F0C8FF71
:101C10000546E16901F090F96062A16A206A00F06E
:101C2000BFFF0646616A00F0BBFF0546E16A00F0AF
:101C3000B7FFE06221E0206BF8B9A168606901F0AC
:101C40007BF92062A168A06901F076F90546A16AD6
:101C500000F0A6FFA062D4E9020101F075FA054682
:101C6000E16901F069F96062A16A206A00F098FFF9
:101C70000546616A00F094FFE062E1682161A168B5
:101C8000E160BDE8F081000070B52D482D49086085
:101C90002D48006848600846FFF794FF2949C86A44
:101CA00001F0AEF806462748C06A80F00045284695
:101CB00001F0A6F804463146FFF752FF23480078AA
:101CC00030B12348006801F0D7F82249486006E0A7
:101CD0001F480068404201F0CFF81E4948601E4886
:101CE000007830B11D48006801F0C6F81C49486012
:101CF00006E01A480068404201F0BEF81849486002
:101D0000002013490860154908601248FFF75AFF80
:101D10001348FFF757FF0F4800F02CF8104800F069
:101D200029F80C49C86A01F06BF80446FFF7BEFEBB
:101D30000B49C86A01F064F80446FFF7D3FE70BD92
:101D40000000A0C16C010020F40000200000002071
:101D500004000020040100200100002008000020F1
:101D60003801002010B5029C016342618361C461A7
:101D700010BD000010B504460749E06A01F0A8F95B
:101D800001D80548E0620021E06A01F0A1F801D81D
:101D90000020E06210BD0000005043472DE9F041F3
:101DA00004460D4616462846E91705EB9171891041
:101DB000A5EB8101491CCFB25148C0690121A14066
:101DC00008434F49C8614F4890FBF6F0401E4E490A
:101DD00051F82410888547204B4951F82410088574
:101DE000284600F093F8012F06D0022F1ED0032FB3
:101DF00036D0042F69D14DE0434850F82400008BC1
:101E000040F06000404951F8241008833E4850F8E3
:101E10002400008B40F008003B4951F8241008834F
:101E20000020394951F8241088864EE0364850F891
:101E30002400008B40F4C040334951F8241008833B
:101E4000314850F82400008B40F400602E4951F8CE
:101E50002410088300202C4951F82410088734E00E
:101E6000294850F82400808B40F06000264951F842
:101E700024108883244850F82400808B40F0080008
:101E8000214951F82410888300201F4951F824105B
:101E900088871AE01C4850F82400808B40F4C0402A
:101EA000194951F824108883174850F82400808B72
:101EB00040F40060144951F824108883002012492E
:101EC00051F82410A1F8400000BF00BF0E4850F8A0
:101ED0002400008C791E8A000121914008430A49A0
:101EE00051F824100884084850F82400008840F075
:101EF0008100054951F824100880BDE8F0810000F8
:101F00000010024040420F00AC00002010B5044613
:101F10000C2C4FD2DFE804F0060C12181E242A30D5
:101F2000363C4248032200210846FFF74FFC41E0BF
:101F3000032201210020FFF749FC3BE0032202219C
:101F40000020FFF743FC35E0032211460020FFF795
:101F50003DFC2FE0032206210020FFF737FC29E09B
:101F6000032207210020FFF731FC23E00322002198
:101F70000120FFF72BFC1DE0032201210846FFF79B
:101F800025FC17E0032206210120FFF71FFC11E0CA
:101F9000032207210120FFF719FC0BE0032208218F
:101FA0000120FFF713FC05E0032209210120FFF7C0
:101FB0000DFC00BF00BF10BD2DE9F84F04460D46D3
:101FC00017462846E91705EB91718910A5EB8101A9
:101FD000491C01F0FF084CF25030874200DB0746F5
:101FE000384850F82400868DB8F1010F09D0B8F1B7
:101FF000020F1DD0B8F1030F31D0B8F1040F5DD13D
:1020000044E0701C00F038FF8346384600F04CFF77
:102010002D49009000F032FE8246594600F08CFFB8
:10202000814600F009FF274951F82410888645E0D1
:10203000701C00F021FF0090384600F035FF834609
:10204000214900F01BFE8246009900F075FF814691
:1020500000F0F2FE1B4951F8241008872EE0701C96
:1020600000F00AFF0090384600F01EFF8346164934
:1020700000F004FE8246009900F05EFF814600F009
:10208000DBFE104951F82410888717E0701C00F01F
:10209000F3FE0090384600F007FF83460A4900F03F
:1020A000EDFD8246009900F047FF814600F0C4FE36
:1020B000044951F82410A1F8400000BF00BFBDE85A
:1020C000F88F0000AC0000200050434770B5044674
:1020D0000D4616461748C0690121A140084315491D
:1020E000C86105EB85004000401E134951F82410DB
:1020F000888541F61F40104951F8241008850E4884
:1021000050F82400008840F001000B4951F82410D9
:102110000880094850F82400808940F001000649F1
:1021200051F82410888104F11C00C1B23046FEF73A
:1021300005FD70BD00100240AC0000202DE9F04FFD
:1021400089B081468A46B9F1000F01D11F4C00E0E9
:102150001F4C4FEA0A1094FBF0FB584600F0EDFAD2
:10216000CDE90401504600F0D1FA07460022194B90
:1021700000F0F6FA05460E46204600F07DFE0746C2
:1021800000F0E2FC2A463346CDE9000100F066F992
:10219000CDE90201DDE9042300F0ECFBCDE9060105
:1021A00000F07AF808904FF08341089800F0C4FEE0
:1021B0000890089800F040FE00EB0B10064951F81B
:1021C0002910088109B0BDE8F08F000000A24A0480
:1021D0000051250200003040B800002070B50446D0
:1021E0000E46154634B91448806940F480401249BF
:1021F000886108E01048C06904F1100101228A409A
:1022000010430D49C861204600F01AF831462046B7
:10221000FFF794FF094850F82400808942F22C010E
:102220000843064951F82410888104F12500C1B201
:102230002846FEF783FC70BD00100240B800002065
:1022400010B5044624B1012C0DD0022C21D115E08B
:10225000032209210020FFF7B9FA04220A210020F5
:10226000FFF7B4FA15E0032202210020FFF7AEFACF
:10227000042203210020FFF7A9FA0AE003220A2121
:102280000120FFF7A3FA04220B210120FFF79EFA99
:1022900000BF00BF10BD000021F00042A2F160525B
:1022A000B2F5801F01F0004328BFD2F17F6C0BD93B
:1022B0005FEA001C43EAC20242EB507018BF70474D
:1022C00028BF20F001007047B2F5801FBCBF184640
:1022D00070474FEA410C1CF5001F02D2084600F07F
:1022E000F2BE70B500F0E6FA00000089FFF7F6BF15
:1022F0004FF00040A0F580007047000010B591EA53
:10230000030F48BF83F0004300F13C83841A71EB54
:10231000030C05D2121943EB0C03001B61EB0C01FB
:10232000DFF824E14FEA1154A4EB135C1EEA430FDB
:1023300018BF9EEA445F73D023EA0E03DCF1200E3F
:1023400021EA045143F4801332D322FA0CFE10EB3D
:102350000E0023FA0CFE41EB0E01CCF1200E03FA25
:102360000EFE10EB0E0051F10001B1F5801FCCF113
:10237000200E32D201EB045112FA0EF2BDE81040E9
:1023800058BF7047401C38BF5FEA420218BF704711
:10239000002814BF20F0010041F100014FEA410381
:1023A00013F5001F38BF7047A1F1C04100F0D0BA4B
:1023B000012A43EB0302ACF1200CDCF11F0E32BF0B
:1023C0004FF0000E23FA0CF310EB030041EB045125
:1023D000B4EB115FD0D0A1EB045101F58011490895
:1023E0005FEA300001EB04510ED350F1000038BF1A
:1023F00012FA0EFE08D1BDE81040C9E7401C38BFF4
:102400005FEA4202CAD1C3E7BDE810404FEA410388
:1024100013F5001F38BF7047A1F1C04100F098BA12
:102420009EEA445F08D011EA5E0FBDE8104004BF89
:1024300001F0004100207047BDE8104070B500F089
:1024400039FA00BF64FBBE3E0000E0FF02494FF0D6
:10245000000000F0EEBE00BF0000F87F2DE9C04193
:1024600030B4DFF8A0C23CEA111418BF3CEA1314E0
:1024700000F0EC8081EA03051CEA111444EAD574EB
:1024800018BF1CEA131500F0C780A4EB05044FF039
:10249000004545EAC12145EAC32341EA505143EAD8
:1024A000525304F17F74994204F500344FEAC0207E
:1024B0004FEAC22208BF904200F09C804FEA1365A9
:1024C0000FF24016765D4FEA134506FB05F7C7F19C
:1024D000807706FB07F74FEAD737A7FB03687642FA
:1024E000C8F58038A7FB06CE38BFA8F1010807FB66
:1024F00008E64FF0000EA6FB028CE6FB03CEDCF1F3
:10250000000CCEF1004E38BFAEF1010EA6FB0C5808
:102510004FF000074FF00005E6FB0E87A1FB08C651
:10252000A0FB07CE16EB0E0645F10005E1FB0765A3
:1025300015F1E04E7EBFA4F580345FEA46066D419A
:1025400016F1800745F100054FEA17274FEA0666A6
:1025500047EA0567A6F1DE46B6F1805F4FEA15252A
:102560001FD9384624F0010C05EBC471BCF1FE6F95
:1025700001EB0C1102D8F0BCBDE8008124425CBF25
:1025800001F5801E9EEAC47F02D4F0BCBDE8008144
:10259000244238D4F0BCA1F1C041BDE8004100F0B4
:1025A000D7B94FEAD22242EA43524FEAD323A7FBDC
:1025B00002864FEAD02040EA415007FB03661EEA3C
:1025C0000E0F4FEAD12105FB026658BFA6EB00565D
:1025D000B6EB00564FEA520E4EEAC37E18EB0E0ED3
:1025E00056EB530EBDD518EB02085E417F1C55F12A
:1025F0000005B6E74FF480154FF000074FF00006D6
:102600004FF00008ADE7F0BC4FF0000001F1C04111
:1026100001F00041BDE8008111EA0C1F0CEA13151E
:1026200000D00CE013EA0C1F00F025804FF00000F2
:10263000F0BC81EA030101F00041BDE80081F0BC7B
:10264000BDE8004181EA030100F082B9F0BCBDE8B9
:10265000004170B500F02EF9097EFC3E00F007B88D
:1026600081EA03014FF0000001F00041704781EA68
:10267000030100F06DB9F0BCBDE800414FF000006F
:1026800021497047FFFDFBF9F7F5F4F2F0EEEDEBB1
:10269000E9E8E6E4E3E1E0DEDDDBDAD8D7D5D4D360
:1026A000D1D0CFCDCCCBCAC8C7C6C5C4C2C1C0BFAC
:1026B000BEBDBCBBBAB9B8B7B6B5B4B3B2B1B0AFB2
:1026C000AEADACABAAA9A8A8A7A6A5A4A3A3A2A196
:1026D000A09F9F9E9D9C9C9B9A9999989797969551
:1026E00095949393929191908F8F8E8E8D8C8C8BED
:1026F0008B8A898988888787868585848483838275
:10270000828181800000FF070000F87F10F0004206
:1027100048BF4042B0FA80F310FA03F10AD0C3F187
:102720001D0303F580634FEA415002EB035202EBB5
:10273000D12170474FF000007047B0FA80F310FAD3
:1027400003F10AD0C3F11D0303F580634FEA415042
:102750004FEA035202EBD12170474FF0000070475F
:10276000DFF848C170B51CEA111E1EBF1CEA131524
:102770009EEA0C0F95EA0C0F00F06F8081EA0304CB
:1027800023EA4C134EEAD47E21EA4C1141F4801125
:1027900043F48013AE44A1FB024CA0FB0365AEF1F1
:1027A0007F7E361955EB0C05A1FB034C4CF1000361
:1027B000A0FB021C16EB0C06654153F10003094215
:1027C00018BF46F0010613F4007F0BD14FEA033126
:1027D0004FEA0530340341EA155140EA16506FF0D4
:1027E00003020AE04FEAC3214FEAC520F40241EA9E
:1027F000555140EA56506FF0020202EB2E4201EBB7
:10280000025585EACE710AD05FEA440C18BF24F065
:10281000004450F1000041F1000120EAD47040F280
:10282000FE7C624500D270BDA84214BF4FF08044C8
:102830004FF04044002E08BF0024BEF1806FA8BFB7
:10284000A1F1C041BDE8704080F282804FF00000ED
:1028500001F1C04101F0004170479EEA0C0F0CEA03
:10286000131518BF95EA0C0F06D04FF0000081EA4F
:10287000030E0EF0004170BD00F01CF88900013E0F
:1028800000F007B800F009B84FEA430C5FEA5C5C5F
:1028900008D081EA030100F05BB84FEA410C5FEA1F
:1028A0005C5CF6D14FF00000014970470000FF0763
:1028B0000000F87F0EF1020E2EF0030E5EF8046B9E
:1028C000364205D4012A43EB030515F5001F12D843
:1028D000012841EB010C1CF5001F0CD80ED14FEA6A
:1028E000D17C15F5001F0CEB4C0C0CF1020C08BF51
:1028F0004CEBD37C04E04FF0080C01E04FEAD37CB2
:102900000CEB4C0526FA05F606F00706B6F1040CAA
:1029100006D20EEB860CBDE870404CF0010C60470F
:10292000DFE80CF0090B02024FF000414FF000000D
:10293000A1F5002170BD19461046012851EB010494
:1029400018BFD4F5001484BF002001F0004170BD11
:102950000808A0F500114FEA3101704791EA030F12
:1029600010B581F000413FF5D1AC83F0004300F099
:1029700009B8000010B591EA030F48BF83F0004387
:102980003FF5C4AC841A71EB030C07D212198CF01A
:10299000004C43EB0C03001B61EB0C01DFF8A4E1DE
:1029A0004FEA1154A4EB135C1EEA430F18BF9EEAD2
:1029B000445F00F0B08023EA6E03524221EA0451E2
:1029C000C3EB6E0338BF5B1EDCF1200E25D322FA69
:1029D0000CFE10EB0E0043FA0CFE41EB0E01CCF1A5
:1029E000200E03FA0EFE10EB0E0051F10001CCF1A7
:1029F000200E29D412FA0EF201EB0451BDE810406A
:102A000058BF7047401C1CBFB2F1004F70470028F0
:102A10000CBF491C20F00100704712EB020E43EB83
:102A2000030218BF4FF0010E4EEA4202ACF1200C37
:102A3000DCF11E0E54D943FA0CFE10EB0E0051F1DE
:102A4000FF31CCF11E0ED5D50EF1010E12FA0EFE9D
:102A5000404141EB010101EB445C5FEA5C5C10D951
:102A600010EBDE7001EB045138BFBEF1004FBDE842
:102A7000104018BF704700280CBF491C20F001000F
:102A8000704730D24FEAD42C11F5001124F40064C1
:102A90001BD0B1FA81F20B3AA41AA41ED2F1200382
:102AA000914030FA03F31943904001EBCC71002CB4
:102AB00001EB0451BDE81040A8BF704701F1C041CF
:102AC0004FF0000001F000417047B0FA80F310FAB7
:102AD00003F100D110BDE41A173C4805C90AE4E728
:102AE00001EB045110BD491001EB0451BDE8104049
:102AF0004FEA300002E04FF0000170474A0008BF83
:102B00000042F8D0B2F5001F28BF704701F0004125
:102B10004FF0000070479EEA445F07D011EA5E0F55
:102B2000BDE8104004BF002100207047BDE8104000
:102B300070B5FFF7BFFE00BF40DFF63E83F00041F7
:102B4000104670470000E0FF43004FEAD30C4FEA05
:102B50003C0C43401FBF40070CF1605113F0FE4F87
:102B600070471CF0006F03D100200CF0004170474B
:102B70000CF0004343EA507010B540EACC0000F07E
:102B80005CFA00BF000000924FEA0001FFF7E0BED0
:102B90004FF000414FF00000A1F500217047000008
:102BA00090EA010F48BF81F0004100F1D482421A3F
:102BB0003CBF801A89184FEAD0524FF07F4C1CEA74
:102BC000410FA2EBD15318BF9CEA026F00F03B808B
:102BD0004FF0004C4CEA00204CEA012121FA03FCA2
:102BE00010EB0C0C1ED202F1FF325FEA1C2040EB0E
:102BF000C25038BF70471CF07F0F4FEA400C18BF1F
:102C0000BCF17F4F38BF7047C3F12003994008BF24
:102C100020F00100BCF17F4F38BF7047A0F1C040E9
:102C200000F051BA4FEA3C00000A40EBC25028BF06
:102C30001CF0FF0F4FEA400CE6D018BFBCF17F4FED
:102C400038BF7047EAE79CEA026F05D010EA5C0FD4
:102C500008BF00F00040704710B500F0EEF900BF6B
:102C600064FBBE3E401058BFC0F14040491058BF01
:102C7000C1F140418142EFF3008070474FF47F0C77
:102C80001CEAD0121EBF1CEAD11392EA0C0F93EA81
:102C90000C0F00F0858090EA010F48BF42F480726B
:102CA00040F4000C41F400002CF07F4120F07F4004
:102CB00000B58142A2EB03020FF2081CACEB504EB0
:102CC000C0F100009EF800E04FEA4E0E00FB0EFC43
:102CD00038BF49004FEA2C1C02F5FA020CFB0EF338
:102CE0004FEACE1E4FEA112C4FEAC1210EEB635E74
:102CF00042EB22420EFB0CFC4FEA1C5300FB03117B
:102D00004FEA112C4FEA01310EFB0CFC4FEADC4C70
:102D100000FB0C11C14228BF09184CEB03335DF8CE
:102D200004EB10EB410143EBC250B2F57C0F38BF0E
:102D3000704729D512F0F00F1CBF00F1C04000F021
:102D400000407047008182838485868788898B8CC8
:102D50008D8E8F919293959697999A9C9D9FA0A204
:102D6000A3A5A7A8AAACAEB0B2B3B5B7B9BCBEC054
:102D7000C2C5C7C9CCCED1D4D7D9DCDFE2E6E9ECF5
:102D8000F0F3F7FAFE0000004FEA400C0CF1807CF3
:102D9000BCF17E4F28BF7047B0F1C04000F093B93E
:102DA00090EA010F0CEAD11348BF42F480726245E9
:102DB00038BF634507D213F47F0F16D080EA0100B5
:102DC00000F00040704710B500F037F9097EFC3E76
:102DD00000F005B880EA010000F00040704780EA8A
:102DE000010000F0004000F06EB912F47F0F04BF44
:102DF0000248704780EA010000F065B90000C07F1A
:102E000041000B0ED3F19E0208D950F400034FEAA3
:102E1000032323FA02F048BF4042704710B500F088
:102E20000CF900BF49922480002070476FF00042E7
:102E300082EA200070470000C10DD1F19E0206DB3E
:102E40004FEA002343F0004323FA02F070470042A8
:102E500007D54FEA4001B1F1FE4F02D24FF000001A
:102E6000704710B500F0E9F84992248000207047BF
:102E70006FEA20007047000010F0004148BF404258
:102E8000B0FA80F310FA03F2C3F19D030BD051EABC
:102E9000C35101EB1220530638BF704700F1010007
:102EA00008BF20F001007047B0FA80F310FA03F277
:102EB000C3F19D030AD0D90501EB1220530638BF98
:102EC000704700F1010008BF20F0010070470000CA
:102ED00050EA010C00F113801CF5000F58BFBCF53F
:102EE000000F01D48842704707D710F5000F58BF74
:102EF00011F5000F15D488427047894270471CF5C0
:102F0000000F04D5BCF5000FF7D5814270474FF094
:102F1000807C1CEB400F38BF1CEB410F01D281427B
:102F2000704710B500F089F8922449004FF0005026
:102F30004FF08051FFF796BE4FF47F0C1CEAD01281
:102F40001EBF1CEAD11392EA0C0F93EA0C0F00F09B
:102F5000478090EA010F48BF42F480724FF0004C66
:102F60004CEA00204CEA012102EB0302A0FB011312
:102F7000A2F50002002918BF43F001035B0028BF3F
:102F80004FEA330342EB22425FEA132C4CEBC25070
:102F90002EBFBCEB436FB2F57C0F70474FEA036C5A
:102FA000BCF1004F08BF20F00100B2F57C0F38BF24
:102FB00070470BD582F0FF0212F5803FC8BF704703
:102FC00000F1C040D8BF00F00040704700F5000C91
:102FD0005FEA4C0C48BF7047B0F1C04000F073B8D6
:102FE00090EA010F0CEAD11348BF42F480726245A7
:102FF00038BF634504D280EA010000F0004070470A
:1030000010B500F01AF800BF8900013E00F007B8C3
:1030100000F009B85FEA410C5FEA1C6C08D080EA56
:10302000010000F050B85FEA400C5FEA1C6CF6D17A
:103030004FF00040A0F5800070470EF1020E2EF018
:10304000030E5EF8044B244204D44FEA4102B2F16D
:103050007F4F11D84FEA4003B3F17F4F0CD80ED108
:103060004FEAD07CB2F17F4F0CEB4C0C0CF1020C10
:1030700008BF4CEBD17C04E04FF0080C01E04FEAB4
:10308000D17C0CEB4C0324FA03F404F00704B4F1F4
:10309000040C06D20EEB840CBDE810404CF0010C81
:1030A0006047DFE80CF0070802024FF00040A0F58F
:1030B000800010BD0846420018BFD2F1807288BF60
:1030C00000F0004010BDFF2141EAD050C00570471C
:1030D00051EA000C00F113801CF5000F58BFBCF53D
:1030E000000F01D48142704707D711F5000F58BF78
:1030F00010F5000F15D481427047894270471CF5C6
:10310000000F04D5BCF5000FF7D5884270474FF08B
:10311000807C1CEB410F38BF1CEB400F01D2884272
:10312000704780EA010081EA000180EA0100FFF7B0
:10313000F8BE80F0004090EA010F7FF538AD81F0D5
:10314000004100F008B8000090EA010F48BF81F08C
:1031500000413FF52CAD421A04D882F00042A0EBAA
:10316000020011444FEAD0524FF07F4C1CEA410F4D
:10317000A2EBD15318BF9CEA026F4AD04FF0004C2B
:103180004CEA00204CEA012121FA03FCB0EB0C0CC4
:103190000FD412F0FE0F36D05FEA4C001DD500129E
:1031A00040EBC25038BF70471CF03F0F18BF70474C
:1031B0000BE0A2F101025FEA1C2040EBC25038BFD5
:1031C00070471CF07F0F18BF7047C3F12003994070
:1031D00014BF401E20F00100704780084FEA122300
:1031E00008BF7047B0FA80FCA2EB0C02CCF1280CAF
:1031F00060FA0CF093EA122F04BF00EBC250704744
:103200004FEAC3707047130A5FEADC1008BF7047CB
:10321000F6E79CEA026F04D010EA5C0F08BF0020BA
:10322000704710B5FFF709FF40DFF63E81F0004020
:1032300070470CF00F03092B08BF082000F05980DD
:103240000A2B0BD0082B18BF704708BF1CF0400F8B
:103250000AD04FF000004FF0000170471CF0400F03
:1032600018BF4FF0004070471CF0100F08D020F03E
:10327000704300F07F4242EAD3014FEA4370704747
:1032800000F0604021F07F4242EA000201F07F40FE
:1032900040EA727070474FF0FF0C4CF4E06C1CEA8F
:1032A00011531CBF9CEA030C9445C2BFDA4201EBE8
:1032B00002517047002B0DD0BCF1000F0FD0002A37
:1032C00001F00041A4BF41F0E04141F07F614FF0C7
:1032D0000000704701F000414FF00000704750EAD5
:1032E00001334FF09B0C18BF4CF0806C7FF4AEA8FC
:1032F00070471CF4801F11D01CF4E02F03D06FEA3C
:10330000CC31490070474FF04050EFF3008222F07B
:10331000704242EA000282F3008870474FF00000DA
:1033200070470000000000000000000000000000E6
:103330000000000000F80000000000000033300032
:10334000000000100C06100C060000000000000039
:10335000000040C07840C0784000043F04043F04AF
:103360000400007088FC08300000001820FF211EB7
:103370000000F008F000E018000000211C031E21EE
:103380001E0000F00888700000001E212324192769
:10339000211010160E0000000000000000000000C8
:1033A0000000000000E018040200000000071820E0
:1033B000400000020418E000000000402018070050
:1033C0000000404080F0804040000202010F0102F6
:1033D0000200000000F0000000000101011F0101D7
:1033E0000100000000000000000080B0700000003C
:1033F00000000000000000000000000101010101C8
:10340000010100000000000000000030300000005A
:103410000000000000008060180400601806010031
:10342000000000E010080810E000000F102020103D
:103430000F00001010F8000000000020203F2020A6
:10344000000000700808088870000030282422213D
:1034500030000030088888483000001820202011F3
:103460000E000000C02010F8000000070424243FD4
:10347000240000F80888880808000019212020117D
:103480000E0000E0108888180000000F11202011A5
:103490000E0000380808C83808000000003F00008F
:1034A00000000070880808887000001C222121227A
:1034B0001C0000E010080810E0000000312222117A
:1034C0000F00000000C0C00000000000003030000D
:1034D000000000000080000000000000806000008C
:1034E00000000000804020100800000102040810C5
:1034F00020004040404040404000040404040404D4
:103500000400000810204080000000201008040281
:103510000100007048080808F00000000030360183
:103520000000C030C828E810E00007182724231442
:103530000B000000C038E0000000203C23020227FE
:10354000382008F8888888700000203F202020114B
:103550000E00C03008080808380007182020201086
:10356000080008F808080810E000203F202020107C
:103570000F0008F88888E8081000203F202023204A
:10358000180008F88888E8081000203F2000030091
:103590000000C03008080838000007182020221E4C
:1035A000020008F808000008F808203F2101012166
:1035B0003F20000808F8080800000020203F2020D5
:1035C000000000000808F8080800C08080807F0024
:1035D000000008F888C028180800203F200126387D
:1035E000200008F8080000000000203F20202020D4
:1035F000300008F8F800F8F80800203F003F003FCE
:10360000200008F830C00008F808203F2000071804
:103610003F00E01008080810E0000F1020202010E4
:103620000F0008F808080808F000203F21010101F8
:103630000000E01008080810E0000F18242438509B
:103640004F0008F8888888887000203F2000030C0D
:103650003020007088080808380000382021212216
:103660001C00180808F8080818000000203F200077
:10367000000008F808000008F808001F202020209B
:103680001F000878880000C83808000007380E01BD
:103690000000F80800F80008F800033C0700073CA9
:1036A0000300081868808068180820302C03032C59
:1036B00030200838C800C83808000000203F20002B
:1036C000000010080808C8380800203826212020EB
:1036D0001800000000FE020202000000007F4040CF
:1036E0004000000C30C0000000000000000106385F
:1036F000C00000020202FE000000004040407F00C7
:1037000000000000040202020400000000000000AB
:1037100000000000000000000000808080808080A9
:103720008080000202040000000000000000000091
:1037300000000000808080800000001924222222E6
:103740003F2008F8008080000000003F1120201179
:103750000E000000008080800000000E112020205C
:103760001100000000808088F800000E1120201059
:103770003F200000808080800000001F2222222243
:103780001300008080F0888888180020203F2020C7
:1037900000000000808080808000006B94949493EF
:1037A000600008F8008080800000203F2100002099
:1037B0003F2000809898000000000020203F20203B
:1037C0000000000000809898000000C08080807F8A
:1037D000000008F8000080808000203F24022D3087
:1037E0002000000808F8000000000020203F2020F2
:1037F00000008080808080808000203F20003F206B
:10380000003F8080008080800000203F2100002059
:103810003F200000808080800000001F20202020AA
:103820001F00808000808000000080FFA120201108
:103830000E000000008080808000000E112020A07B
:10384000FF80808080008080800020203F21200039
:103850000100000080808080800000332424242424
:103860001900008080E0808000000000001F202000
:1038700000008080000000808000001F20202010B9
:103880003F20808080000080808000010E3008068C
:10389000010080800080008080800F300C030C309D
:1038A0000F0000808000808080000020312E0E31CB
:1038B0002000808080000080808080818E701806CB
:1038C000010000808080808080000021302C222137
:1038D000300000000000807C020200000000003F79
:1038E000404000000000FF00000000000000FF005A
:1038F00000000002027C800000000040403F000009
:1039000000000006010102020404000000000000A3
:1039100000000000000000004FBB610567ACDD3F08
:10392000182D4454FB21E93F9BF681D20B73EF3FE6
:10393000182D4454FB21F93FE2652F227F2B7A3C5E
:10394000075C143326A6813CBDCBF07A8807703C17
:10395000075C143326A6913CC4EB98999999C9BF8A
:10396000711623FEC671BCBF6D9A74AFF2B0B3BFBF
:103970009AFDDE522DDEADBF2F6C6A2C44B4A2BF7F
:103980000D5555555555D53FFF8300922449C23FEB
:103990006E204CC5CD45B73F513DD0A0660DB13F1F
:1039A000EB0D76244B7BA93F11DA22E33AAD903F31
:1039B0000000000000000000D839000800000020CE
:1039C0000401000028010008DC3A0008040100207E
:1039D000FC06000044010008010100000000000096
:1039E00000000000000000006F12833AA69B443BD9
:1039F0000000003F0000803F0000000000000000C9
:103A00000000803FCDCC4C3D0000000000000000D5
:103A100000000000000000006F12833AA69B443BA8
:103A20000000003F0000803F000000000000000098
:103A30000000803FCDCC4C3D0000000000000000A5
:103A400000000000000000006F12833AA69B443B78
:103A50000000003F0000803F000000000000000068
:103A60000000803FCDCC4C3D000000000000000075
:103A7000000000000000000000080140000C0140B0
:103A80000010014000000040000400400008004019
:103A900000380140004400400048004000000000A1
:103AA0000000000000000000000000000000000016
:103AB0000000000000000000000000000000000006
:103AC00000000000000000000000000000000000F6
:0C3AD000000000000000000000000000EA
:04000005080000ED02
:00000001FF
