Component: ARM Compiler 5.06 update 6 (build 750) Tool: armlink [4d35ed]

==============================================================================

Section Cross References

    main.o(i.main) refers to ml_oled.o(i.OLED_Init) for OLED_Init
    main.o(i.main) refers to motor.o(i.motor_init) for motor_init
    main.o(i.main) refers to motor.o(i.encoder_init) for encoder_init
    main.o(i.main) refers to ml_uart.o(i.uart_init) for uart_init
    main.o(i.main) refers to pid.o(i.pid_init) for pid_init
    main.o(i.main) refers to gray_track.o(i.gray_init) for gray_init
    main.o(i.main) refers to ml_i2c.o(i.I2C_Init) for I2C_Init
    main.o(i.main) refers to ml_mpu6050.o(i.MPU6050_Init) for MPU6050_Init
    main.o(i.main) refers to ml_hmc5883l.o(i.HMC5883L_Init) for HMC5883L_Init
    main.o(i.main) refers to ml_exti.o(i.exti_init) for exti_init
    main.o(i.main) refers to ml_tim.o(i.tim_interrupt_ms_init) for tim_interrupt_ms_init
    main.o(i.main) refers to ml_mpu6050.o(i.MPU6050_GetData) for MPU6050_GetData
    main.o(i.main) refers to ml_oled.o(i.OLED_ShowNum) for OLED_ShowNum
    main.o(i.main) refers to ml_delay.o(i.delay_ms) for delay_ms
    main.o(i.main) refers to pid.o(.bss) for motorA
    main.o(i.main) refers to ml_mpu6050.o(.data) for gx
    isr.o(i.EXTI2_IRQHandler) refers to ml_gpio.o(i.gpio_get) for gpio_get
    isr.o(i.EXTI2_IRQHandler) refers to motor.o(.data) for Encoder_count1
==============================================================================

Removing Unused input sections from the image.

    Removing pid.o(i.datavision_send), (76 bytes).
    Removing gray_track.o(i.digtal), (190 bytes).
    Removing gray_track.o(i.track), (402 bytes).
    Removing filter.o(i.Mahony_Filter), (84 bytes).
    Removing system_stm32f10x.o(i.SystemCoreClockUpdate), (164 bytes).
    Removing system_stm32f10x.o(.data), (20 bytes).
    Removing ml_delay.o(i.delay_s), (24 bytes).
    Removing ml_uart.o(i.fputc), (28 bytes).
    Removing ml_uart.o(i.uart_getbyte), (20 bytes).
    Removing ml_uart.o(i.uart_sendbyte), (32 bytes).
    Removing ml_uart.o(i.uart_sendstr), (26 bytes).
    Removing ml_adc.o(i.adc_get), (64 bytes).
    Removing ml_adc.o(i.adc_init), (472 bytes).
    Removing ml_adc.o(i.adc_pin_init), (224 bytes).
    Removing ml_adc.o(.data), (12 bytes).
    Removing ml_i2c.o(i.I2C_SendAck), (34 bytes).
    Removing ml_oled.o(i.OLED_DrawBMP), (116 bytes).
    Removing ml_oled.o(i.OLED_ShowBinNum), (62 bytes).
==============================================================================

Image Symbol Table

    Local Symbols

    Symbol Name                              Value     Ov Type        Size  Object(Section)

    ../clib/angel/boardlib.s                 0x00000000   Number         0  boardshut.o ABSOLUTE
    ../clib/angel/boardlib.s                 0x00000000   Number         0  boardinit1.o ABSOLUTE
    ../clib/angel/boardlib.s                 0x00000000   Number         0  boardinit2.o ABSOLUTE
    ../clib/angel/boardlib.s                 0x00000000   Number         0  boardinit3.o ABSOLUTE
    ../clib/angel/handlers.s                 0x00000000   Number         0  __scatter_zi.o ABSOLUTE
    ../clib/angel/handlers.s                 0x00000000   Number         0  __scatter_copy.o ABSOLUTE
    ../clib/angel/kernel.s                   0x00000000   Number         0  __rtentry2.o ABSOLUTE
    ../clib/angel/kernel.s                   0x00000000   Number         0  __rtentry4.o ABSOLUTE
    ../clib/angel/kernel.s                   0x00000000   Number         0  __rtentry.o ABSOLUTE
    ../clib/angel/kernel.s                   0x00000000   Number         0  rtexit.o ABSOLUTE
    ../clib/angel/kernel.s                   0x00000000   Number         0  rtexit2.o ABSOLUTE
    ../clib/angel/rt.s                       0x00000000   Number         0  rt_raise.o ABSOLUTE
    ../clib/angel/rt.s                       0x00000000   Number         0  rt_errno_addr.o ABSOLUTE
    ../clib/angel/rt.s                       0x00000000   Number         0  rt_errno_addr_intlibspace.o ABSOLUTE
    ../clib/angel/scatter.s                  0x00000000   Number         0  __scatter.o ABSOLUTE
    ../clib/angel/startup.s                  0x00000000   Number         0  __main.o ABSOLUTE
    ../clib/angel/sys.s                      0x00000000   Number         0  indicate_semi.o ABSOLUTE
    ../clib/angel/sys.s                      0x00000000   Number         0  use_no_semi_2.o ABSOLUTE
    ../clib/angel/sys.s                      0x00000000   Number         0  use_no_semi.o ABSOLUTE
    ../clib/angel/sys.s                      0x00000000   Number         0  libspace.o ABSOLUTE
    ../clib/angel/sys.s                      0x00000000   Number         0  sys_stackheap_outer.o ABSOLUTE
    ../clib/angel/sysapp.c                   0x00000000   Number         0  sys_command.o ABSOLUTE
    ../clib/angel/sysapp.c                   0x00000000   Number         0  sys_wrch.o ABSOLUTE
    ../clib/armsys.c                         0x00000000   Number         0  argv_veneer.o ABSOLUTE
    ../clib/armsys.c                         0x00000000   Number         0  argv_veneer.o ABSOLUTE
    ../clib/armsys.c                         0x00000000   Number         0  no_argv.o ABSOLUTE
    ../clib/armsys.c                         0x00000000   Number         0  _get_argv_nomalloc.o ABSOLUTE
    ../clib/fenv.c                           0x00000000   Number         0  _rserrno.o ABSOLUTE
    ../clib/heapalloc.c                      0x00000000   Number         0  hrguard.o ABSOLUTE
    ../clib/heapaux.c                        0x00000000   Number         0  heapauxi.o ABSOLUTE
    ../clib/libinit.s                        0x00000000   Number         0  libinit.o ABSOLUTE
    ../clib/libinit.s                        0x00000000   Number         0  libshutdown.o ABSOLUTE
    ../clib/libinit.s                        0x00000000   Number         0  libshutdown2.o ABSOLUTE
    ../clib/libinit.s                        0x00000000   Number         0  libinit2.o ABSOLUTE
    ../clib/signal.c                         0x00000000   Number         0  defsig_rtred_inner.o ABSOLUTE
    ../clib/signal.c                         0x00000000   Number         0  defsig_stak_inner.o ABSOLUTE
    ../clib/signal.c                         0x00000000   Number         0  defsig_fpe_inner.o ABSOLUTE
    ../clib/signal.c                         0x00000000   Number         0  defsig_abrt_inner.o ABSOLUTE
    ../clib/signal.c                         0x00000000   Number         0  defsig_rtmem_outer.o ABSOLUTE
    ../clib/signal.c                         0x00000000   Number         0  defsig_rtmem_formal.o ABSOLUTE
    ../clib/signal.c                         0x00000000   Number         0  defsig_exit.o ABSOLUTE
    ../clib/signal.c                         0x00000000   Number         0  defsig_rtmem_inner.o ABSOLUTE
    ../clib/signal.c                         0x00000000   Number         0  __raise.o ABSOLUTE
    ../clib/signal.c                         0x00000000   Number         0  defsig_general.o ABSOLUTE
    ../clib/signal.c                         0x00000000   Number         0  defsig_pvfn_inner.o ABSOLUTE
    ../clib/signal.c                         0x00000000   Number         0  defsig_cppl_inner.o ABSOLUTE
    ../clib/signal.c                         0x00000000   Number         0  defsig_segv_inner.o ABSOLUTE
    ../clib/signal.c                         0x00000000   Number         0  defsig_other.o ABSOLUTE
    ../clib/signal.s                         0x00000000   Number         0  defsig.o ABSOLUTE
    ../clib/stdlib.c                         0x00000000   Number         0  exit.o ABSOLUTE
    ../fplib/d2f.s                           0x00000000   Number         0  d2f.o ABSOLUTE
    ../fplib/daddsub.s                       0x00000000   Number         0  daddsub_clz.o ABSOLUTE
    ../fplib/dcheck1.s                       0x00000000   Number         0  dcheck1.o ABSOLUTE
    ../fplib/dcmpi.s                         0x00000000   Number         0  dcmpi.o ABSOLUTE
    ../fplib/ddiv.s                          0x00000000   Number         0  ddiv.o ABSOLUTE
    ../fplib/dfix.s                          0x00000000   Number         0  dfix.o ABSOLUTE
    ../fplib/dflt.s                          0x00000000   Number         0  dflt_clz.o ABSOLUTE
    ../fplib/dleqf.s                         0x00000000   Number         0  dleqf.o ABSOLUTE
    ../fplib/dmul.s                          0x00000000   Number         0  dmul.o ABSOLUTE
    ../fplib/dnaninf.s                       0x00000000   Number         0  dnaninf.o ABSOLUTE
    ../fplib/dretinf.s                       0x00000000   Number         0  dretinf.o ABSOLUTE
    ../fplib/drleqf.s                        0x00000000   Number         0  drleqf.o ABSOLUTE
    ../fplib/dsqrt.s                         0x00000000   Number         0  dsqrt_noumaal.o ABSOLUTE
    ../fplib/f2d.s                           0x00000000   Number         0  f2d.o ABSOLUTE
    ../fplib/faddsub.s                       0x00000000   Number         0  faddsub_clz.o ABSOLUTE
    ../fplib/fcmpi.s                         0x00000000   Number         0  fcmpi.o ABSOLUTE
    ../fplib/fdiv.s                          0x00000000   Number         0  fdiv.o ABSOLUTE
    ../fplib/ffix.s                          0x00000000   Number         0  ffix.o ABSOLUTE
    ../fplib/ffixu.s                         0x00000000   Number         0  ffixu.o ABSOLUTE
    ../fplib/fflt.s                          0x00000000   Number         0  fflt_clz.o ABSOLUTE
    ../fplib/fleqf.s                         0x00000000   Number         0  fleqf.o ABSOLUTE
    ../fplib/fmul.s                          0x00000000   Number         0  fmul.o ABSOLUTE
    ../fplib/fnaninf.s                       0x00000000   Number         0  fnaninf.o ABSOLUTE
    ../fplib/fpinit.s                        0x00000000   Number         0  fpinit.o ABSOLUTE
    ../fplib/fretinf.s                       0x00000000   Number         0  fretinf.o ABSOLUTE
    ../fplib/frleqf.s                        0x00000000   Number         0  frleqf.o ABSOLUTE
    ../fplib/retnan.s                        0x00000000   Number         0  retnan.o ABSOLUTE
    ../fplib/scalbn.s                        0x00000000   Number         0  scalbn.o ABSOLUTE
    ../fplib/trapv.s                         0x00000000   Number         0  trapv.o ABSOLUTE
    ../fplib/usenofp.s                       0x00000000   Number         0  usenofp.o ABSOLUTE
    ../mathlib/atan.c                        0x00000000   Number         0  atan.o ABSOLUTE
    ../mathlib/atan.c                        0x00000000   Number         0  atan_x.o ABSOLUTE
    ../mathlib/atan2.c                       0x00000000   Number         0  atan2.o ABSOLUTE
    ../mathlib/atan2.c                       0x00000000   Number         0  atan2_x.o ABSOLUTE
    ../mathlib/dunder.c                      0x00000000   Number         0  dunder.o ABSOLUTE
    ../mathlib/fpclassify.c                  0x00000000   Number         0  fpclassify.o ABSOLUTE
    ../mathlib/poly.c                        0x00000000   Number         0  poly.o ABSOLUTE
    ../mathlib/pow.c                         0x00000000   Number         0  pow_x.o ABSOLUTE
    ../mathlib/pow.c                         0x00000000   Number         0  pow.o ABSOLUTE
    ../mathlib/qnan.c                        0x00000000   Number         0  qnan.o ABSOLUTE
    ../mathlib/sqrt.c                        0x00000000   Number         0  sqrt.o ABSOLUTE
    ../mathlib/sqrt.c                        0x00000000   Number         0  sqrt_x.o ABSOLUTE
    ..\ML_LIBS\ml_adc.c                      0x00000000   Number         0  ml_adc.o ABSOLUTE
    ..\ML_LIBS\ml_delay.c                    0x00000000   Number         0  ml_delay.o ABSOLUTE
    ..\ML_LIBS\ml_exti.c                     0x00000000   Number         0  ml_exti.o ABSOLUTE
    ..\ML_LIBS\ml_gpio.c                     0x00000000   Number         0  ml_gpio.o ABSOLUTE
    ..\ML_LIBS\ml_nvic.c                     0x00000000   Number         0  ml_nvic.o ABSOLUTE
    ..\ML_LIBS\ml_pwm.c                      0x00000000   Number         0  ml_pwm.o ABSOLUTE
    ..\ML_LIBS\ml_tim.c                      0x00000000   Number         0  ml_tim.o ABSOLUTE
    ..\ML_LIBS\ml_uart.c                     0x00000000   Number         0  ml_uart.o ABSOLUTE
    ..\code\filter.c                         0x00000000   Number         0  filter.o ABSOLUTE
    ..\code\gray_track.c                     0x00000000   Number         0  gray_track.o ABSOLUTE
    ..\code\motor.c                          0x00000000   Number         0  motor.o ABSOLUTE
    ..\code\pid.c                            0x00000000   Number         0  pid.o ABSOLUTE
    ..\ml_libs\ml_hmc5883l.c                 0x00000000   Number         0  ml_hmc5883l.o ABSOLUTE
    ..\ml_libs\ml_i2c.c                      0x00000000   Number         0  ml_i2c.o ABSOLUTE
    ..\ml_libs\ml_mpu6050.c                  0x00000000   Number         0  ml_mpu6050.o ABSOLUTE
    ..\ml_libs\ml_oled.c                     0x00000000   Number         0  ml_oled.o ABSOLUTE
    ..\sys\startup_stm32f10x_md.s            0x00000000   Number         0  startup_stm32f10x_md.o ABSOLUTE
    ..\sys\system_stm32f10x.c                0x00000000   Number         0  system_stm32f10x.o ABSOLUTE
    dc.s                                     0x00000000   Number         0  dc.o ABSOLUTE
    isr.c                                    0x00000000   Number         0  isr.o ABSOLUTE
    main.c                                   0x00000000   Number         0  main.o ABSOLUTE
    RESET                                    0x08000000   Section      236  startup_stm32f10x_md.o(RESET)
    !!!main                                  0x080000ec   Section        8  __main.o(!!!main)
    !!!scatter                               0x080000f4   Section       52  __scatter.o(!!!scatter)
    !!handler_copy                           0x08000128   Section       26  __scatter_copy.o(!!handler_copy)
    !!handler_zi                             0x08000144   Section       28  __scatter_zi.o(!!handler_zi)
    .ARM.Collect$$libinit$$00000000          0x08000160   Section        2  libinit.o(.ARM.Collect$$libinit$$00000000)
    .ARM.Collect$$libinit$$00000002          0x08000162   Section        0  libinit2.o(.ARM.Collect$$libinit$$00000002)
    .ARM.Collect$$libinit$$00000004          0x08000162   Section        0  libinit2.o(.ARM.Collect$$libinit$$00000004)
    .ARM.Collect$$libinit$$0000000A          0x08000162   Section        0  libinit2.o(.ARM.Collect$$libinit$$0000000A)
    .ARM.Collect$$libinit$$0000000C          0x08000162   Section        0  libinit2.o(.ARM.Collect$$libinit$$0000000C)
    .ARM.Collect$$libinit$$0000000E          0x08000162   Section        0  libinit2.o(.ARM.Collect$$libinit$$0000000E)
    .ARM.Collect$$libinit$$00000011          0x08000162   Section        0  libinit2.o(.ARM.Collect$$libinit$$00000011)
    .ARM.Collect$$libinit$$00000013          0x08000162   Section        0  libinit2.o(.ARM.Collect$$libinit$$00000013)
    .ARM.Collect$$libinit$$00000015          0x08000162   Section        0  libinit2.o(.ARM.Collect$$libinit$$00000015)
    .ARM.Collect$$libinit$$00000017          0x08000162   Section        0  libinit2.o(.ARM.Collect$$libinit$$00000017)
    .ARM.Collect$$libinit$$00000019          0x08000162   Section        0  libinit2.o(.ARM.Collect$$libinit$$00000019)
    .ARM.Collect$$libinit$$0000001B          0x08000162   Section        0  libinit2.o(.ARM.Collect$$libinit$$0000001B)
    .ARM.Collect$$libinit$$0000001D          0x08000162   Section        0  libinit2.o(.ARM.Collect$$libinit$$0000001D)
    .ARM.Collect$$libinit$$0000001F          0x08000162   Section        0  libinit2.o(.ARM.Collect$$libinit$$0000001F)
    .ARM.Collect$$libinit$$00000021          0x08000162   Section        0  libinit2.o(.ARM.Collect$$libinit$$00000021)
    .ARM.Collect$$libinit$$00000023          0x08000162   Section        0  libinit2.o(.ARM.Collect$$libinit$$00000023)
    .ARM.Collect$$libinit$$00000025          0x08000162   Section        0  libinit2.o(.ARM.Collect$$libinit$$00000025)
    .ARM.Collect$$libinit$$0000002C          0x08000162   Section        0  libinit2.o(.ARM.Collect$$libinit$$0000002C)
    .ARM.Collect$$libinit$$0000002E          0x08000162   Section        0  libinit2.o(.ARM.Collect$$libinit$$0000002E)
    .ARM.Collect$$libinit$$00000030          0x08000162   Section        0  libinit2.o(.ARM.Collect$$libinit$$00000030)
    .ARM.Collect$$libinit$$00000032          0x08000162   Section        0  libinit2.o(.ARM.Collect$$libinit$$00000032)
    .ARM.Collect$$libinit$$00000033          0x08000162   Section        2  libinit2.o(.ARM.Collect$$libinit$$00000033)
    .ARM.Collect$$libshutdown$$00000000      0x08000164   Section        2  libshutdown.o(.ARM.Collect$$libshutdown$$00000000)
    .ARM.Collect$$libshutdown$$00000002      0x08000166   Section        0  libshutdown2.o(.ARM.Collect$$libshutdown$$00000002)
    .ARM.Collect$$libshutdown$$00000004      0x08000166   Section        0  libshutdown2.o(.ARM.Collect$$libshutdown$$00000004)
    .ARM.Collect$$libshutdown$$00000007      0x08000166   Section        0  libshutdown2.o(.ARM.Collect$$libshutdown$$00000007)
    .ARM.Collect$$libshutdown$$0000000A      0x08000166   Section        0  libshutdown2.o(.ARM.Collect$$libshutdown$$0000000A)
    .ARM.Collect$$libshutdown$$0000000C      0x08000166   Section        0  libshutdown2.o(.ARM.Collect$$libshutdown$$0000000C)
    .ARM.Collect$$libshutdown$$0000000F      0x08000166   Section        0  libshutdown2.o(.ARM.Collect$$libshutdown$$0000000F)
    .ARM.Collect$$libshutdown$$00000010      0x08000166   Section        2  libshutdown2.o(.ARM.Collect$$libshutdown$$00000010)
    .ARM.Collect$$rtentry$$00000000          0x08000168   Section        0  __rtentry.o(.ARM.Collect$$rtentry$$00000000)
    .ARM.Collect$$rtentry$$00000002          0x08000168   Section        0  __rtentry2.o(.ARM.Collect$$rtentry$$00000002)
    .ARM.Collect$$rtentry$$00000004          0x08000168   Section        6  __rtentry4.o(.ARM.Collect$$rtentry$$00000004)
    .ARM.Collect$$rtentry$$00000009          0x0800016e   Section        0  __rtentry2.o(.ARM.Collect$$rtentry$$00000009)
    .ARM.Collect$$rtentry$$0000000A          0x0800016e   Section        4  __rtentry2.o(.ARM.Collect$$rtentry$$0000000A)
    .ARM.Collect$$rtentry$$0000000C          0x08000172   Section        0  __rtentry2.o(.ARM.Collect$$rtentry$$0000000C)
    .ARM.Collect$$rtentry$$0000000D          0x08000172   Section        8  __rtentry2.o(.ARM.Collect$$rtentry$$0000000D)
    .ARM.Collect$$rtexit$$00000000           0x0800017a   Section        2  rtexit.o(.ARM.Collect$$rtexit$$00000000)
    .ARM.Collect$$rtexit$$00000002           0x0800017c   Section        0  rtexit2.o(.ARM.Collect$$rtexit$$00000002)
    .ARM.Collect$$rtexit$$00000003           0x0800017c   Section        4  rtexit2.o(.ARM.Collect$$rtexit$$00000003)
    .ARM.Collect$$rtexit$$00000004           0x08000180   Section        6  rtexit2.o(.ARM.Collect$$rtexit$$00000004)
    .text                                    0x08000188   Section       64  startup_stm32f10x_md.o(.text)
    .text                                    0x080001c8   Section        2  use_no_semi_2.o(.text)
    .text                                    0x080001ca   Section        0  heapauxi.o(.text)
    .text                                    0x080001d0   Section        2  use_no_semi.o(.text)
    .text                                    0x080001d4   Section        8  libspace.o(.text)
    .text                                    0x080001dc   Section       74  sys_stackheap_outer.o(.text)
    .text                                    0x08000226   Section        0  exit.o(.text)
    i.EXTI0_IRQHandler                       0x08000238   Section        0  isr.o(i.EXTI0_IRQHandler)
    i.EXTI1_IRQHandler                       0x08000250   Section        0  isr.o(i.EXTI1_IRQHandler)
    i.EXTI2_IRQHandler                       0x08000268   Section        0  isr.o(i.EXTI2_IRQHandler)
    i.EXTI3_IRQHandler                       0x080002a4   Section        0  isr.o(i.EXTI3_IRQHandler)
    i.EXTI4_IRQHandler                       0x080002bc   Section        0  isr.o(i.EXTI4_IRQHandler)
    i.EXTI9_5_IRQHandler                     0x080002f8   Section        0  isr.o(i.EXTI9_5_IRQHandler)
    i.HMC5883L_GetData                       0x08000640   Section        0  ml_hmc5883l.o(i.HMC5883L_GetData)
    i.HMC5883L_Init                          0x080006a0   Section        0  ml_hmc5883l.o(i.HMC5883L_Init)
    i.HMC5883L_Read                          0x080006bc   Section        0  ml_hmc5883l.o(i.HMC5883L_Read)
    i.HMC5883L_Write                         0x080006fc   Section        0  ml_hmc5883l.o(i.HMC5883L_Write)
    i.I2C_Init                               0x0800072a   Section        0  ml_i2c.o(i.I2C_Init)
    i.I2C_NotSendAck                         0x08000756   Section        0  ml_i2c.o(i.I2C_NotSendAck)
    i.I2C_ReceiveByte                        0x08000778   Section        0  ml_i2c.o(i.I2C_ReceiveByte)
    i.I2C_SendByte                           0x080007b8   Section        0  ml_i2c.o(i.I2C_SendByte)
    i.I2C_Start                              0x080007fa   Section        0  ml_i2c.o(i.I2C_Start)
    i.I2C_Stop                               0x08000826   Section        0  ml_i2c.o(i.I2C_Stop)
    i.I2C_WaitAck                            0x08000848   Section        0  ml_i2c.o(i.I2C_WaitAck)
    i.Kalman_Filter                          0x08000878   Section        0  filter.o(i.Kalman_Filter)
    i.MPU6050_GetData                        0x080009b8   Section        0  ml_mpu6050.o(i.MPU6050_GetData)
    i.MPU6050_Init                           0x08000a70   Section        0  ml_mpu6050.o(i.MPU6050_Init)
    i.MPU6050_Read                           0x08000aa4   Section        0  ml_mpu6050.o(i.MPU6050_Read)
    i.MPU6050_Write                          0x08000ae4   Section        0  ml_mpu6050.o(i.MPU6050_Write)
    i.NVIC_Group_Config                      0x08000b14   Section        0  ml_nvic.o(i.NVIC_Group_Config)
    i.NVIC_init                              0x08000b3c   Section        0  ml_nvic.o(i.NVIC_init)
    i.OLED_Clear                             0x08000b88   Section        0  ml_oled.o(i.OLED_Clear)
    i.OLED_I2C_Init                          0x08000bb2   Section        0  ml_oled.o(i.OLED_I2C_Init)
    i.OLED_I2C_SendByte                      0x08000bde   Section        0  ml_oled.o(i.OLED_I2C_SendByte)
    i.OLED_I2C_Start                         0x08000c28   Section        0  ml_oled.o(i.OLED_I2C_Start)
    i.OLED_I2C_Stop                          0x08000c54   Section        0  ml_oled.o(i.OLED_I2C_Stop)
    i.OLED_Init                              0x08000c76   Section        0  ml_oled.o(i.OLED_Init)
    i.OLED_Pow                               0x08000d24   Section        0  ml_oled.o(i.OLED_Pow)
    i.OLED_SetCursor                         0x08000d38   Section        0  ml_oled.o(i.OLED_SetCursor)
    i.OLED_ShowChar                          0x08000d5c   Section        0  ml_oled.o(i.OLED_ShowChar)
    i.OLED_ShowNum                           0x08000dd0   Section        0  ml_oled.o(i.OLED_ShowNum)
    i.OLED_WriteCommand                      0x08000e14   Section        0  ml_oled.o(i.OLED_WriteCommand)
    i.OLED_WriteData                         0x08000e34   Section        0  ml_oled.o(i.OLED_WriteData)
    i.SetSysClock                            0x08000e54   Section        0  system_stm32f10x.o(i.SetSysClock)
    SetSysClock                              0x08000e55   Thumb Code     8  system_stm32f10x.o(i.SetSysClock)
    i.SetSysClockTo72                        0x08000e5c   Section        0  system_stm32f10x.o(i.SetSysClockTo72)
    SetSysClockTo72                          0x08000e5d   Thumb Code   214  system_stm32f10x.o(i.SetSysClockTo72)
    i.SystemInit                             0x08000f3c   Section        0  system_stm32f10x.o(i.SystemInit)
    i.TIM2_IRQHandler                        0x08000f9c   Section        0  isr.o(i.TIM2_IRQHandler)
    i.TIM3_IRQHandler                        0x08000fbc   Section        0  isr.o(i.TIM3_IRQHandler)
    i.TIM4_IRQHandler                        0x08000fe0   Section        0  isr.o(i.TIM4_IRQHandler)
    i.USART1_IRQHandler                      0x08000ffc   Section        0  isr.o(i.USART1_IRQHandler)
    i.USART2_IRQHandler                      0x08001018   Section        0  isr.o(i.USART2_IRQHandler)
    i.USART3_IRQHandler                      0x08001034   Section        0  isr.o(i.USART3_IRQHandler)
    i.__ARM_fpclassify                       0x08001050   Section        0  fpclassify.o(i.__ARM_fpclassify)
    i.__kernel_poly                          0x08001078   Section        0  poly.o(i.__kernel_poly)
    i.__mathlib_dbl_infnan                   0x08001122   Section        0  dunder.o(i.__mathlib_dbl_infnan)
    i.__mathlib_dbl_infnan2                  0x08001128   Section        0  dunder.o(i.__mathlib_dbl_infnan2)
    i.__mathlib_dbl_underflow                0x0800112c   Section        0  dunder.o(i.__mathlib_dbl_underflow)
    i._sys_exit                              0x0800113c   Section        0  ml_uart.o(i._sys_exit)
    i.atan                                   0x08001140   Section        0  atan.o(i.atan)
    i.atan2                                  0x08001360   Section        0  atan2.o(i.atan2)
    i.delay_ms                               0x080014e0   Section        0  ml_delay.o(i.delay_ms)
    i.delay_us                               0x080014f8   Section        0  ml_delay.o(i.delay_us)
    i.encoder_init                           0x08001526   Section        0  motor.o(i.encoder_init)
    i.exti_init                              0x08001554   Section        0  ml_exti.o(i.exti_init)
    i.exti_pin_init                          0x08001660   Section        0  ml_exti.o(i.exti_pin_init)
    i.gpio_get                               0x080017a8   Section        0  ml_gpio.o(i.gpio_get)
    i.gpio_init                              0x080017cc   Section        0  ml_gpio.o(i.gpio_init)
    i.gpio_set                               0x08001970   Section        0  ml_gpio.o(i.gpio_set)
    i.gray_init                              0x080019b0   Section        0  gray_track.o(i.gray_init)
    i.main                                   0x08001a04   Section        0  main.o(i.main)
    i.motorA_duty                            0x08001aac   Section        0  motor.o(i.motorA_duty)
    i.motorB_duty                            0x08001ae4   Section        0  motor.o(i.motorB_duty)
    i.motor_init                             0x08001b1c   Section        0  motor.o(i.motor_init)
    i.motor_target_set                       0x08001b60   Section        0  pid.o(i.motor_target_set)
    i.pid_cal                                0x08001bc4   Section        0  pid.o(i.pid_cal)
    i.pid_control                            0x08001c88   Section        0  pid.o(i.pid_control)
    i.pid_init                               0x08001d64   Section        0  pid.o(i.pid_init)
    i.pidout_limit                           0x08001d74   Section        0  pid.o(i.pidout_limit)
    i.pwm_init                               0x08001d9c   Section        0  ml_pwm.o(i.pwm_init)
    i.pwm_pin_init                           0x08001f0c   Section        0  ml_pwm.o(i.pwm_pin_init)
    i.pwm_update                             0x08001fb8   Section        0  ml_pwm.o(i.pwm_update)
    i.tim_interrupt_ms_init                  0x080020cc   Section        0  ml_tim.o(i.tim_interrupt_ms_init)
    i.uart_baud_config                       0x0800213c   Section        0  ml_uart.o(i.uart_baud_config)
    i.uart_init                              0x080021dc   Section        0  ml_uart.o(i.uart_init)
    i.uart_pin_init                          0x08002240   Section        0  ml_uart.o(i.uart_pin_init)
    x$fpl$d2f                                0x08002298   Section       98  d2f.o(x$fpl$d2f)
    x$fpl$dadd                               0x080022fc   Section      336  daddsub_clz.o(x$fpl$dadd)
    _dadd1                                   0x0800230d   Thumb Code     0  daddsub_clz.o(x$fpl$dadd)
    x$fpl$dcheck1                            0x0800244c   Section       16  dcheck1.o(x$fpl$dcheck1)
    x$fpl$ddiv                               0x0800245c   Section      688  ddiv.o(x$fpl$ddiv)
    ddiv_entry                               0x08002463   Thumb Code     0  ddiv.o(x$fpl$ddiv)
    x$fpl$dflt                               0x0800270c   Section       46  dflt_clz.o(x$fpl$dflt)
    x$fpl$dfltu                              0x0800273a   Section       38  dflt_clz.o(x$fpl$dfltu)
    x$fpl$dmul                               0x08002760   Section      340  dmul.o(x$fpl$dmul)
    x$fpl$dnaninf                            0x080028b4   Section      156  dnaninf.o(x$fpl$dnaninf)
    x$fpl$dretinf                            0x08002950   Section       12  dretinf.o(x$fpl$dretinf)
    x$fpl$drsb                               0x0800295c   Section       22  daddsub_clz.o(x$fpl$drsb)
    x$fpl$dsub                               0x08002974   Section      468  daddsub_clz.o(x$fpl$dsub)
    _dsub1                                   0x08002985   Thumb Code     0  daddsub_clz.o(x$fpl$dsub)
    x$fpl$f2d                                0x08002b48   Section       86  f2d.o(x$fpl$f2d)
    x$fpl$fadd                               0x08002ba0   Section      196  faddsub_clz.o(x$fpl$fadd)
    _fadd1                                   0x08002baf   Thumb Code     0  faddsub_clz.o(x$fpl$fadd)
    x$fpl$fcmpinf                            0x08002c64   Section       24  fcmpi.o(x$fpl$fcmpinf)
    x$fpl$fdiv                               0x08002c7c   Section      388  fdiv.o(x$fpl$fdiv)
    _fdiv1                                   0x08002c7d   Thumb Code     0  fdiv.o(x$fpl$fdiv)
    x$fpl$ffix                               0x08002e00   Section       54  ffix.o(x$fpl$ffix)
    x$fpl$ffixu                              0x08002e38   Section       62  ffixu.o(x$fpl$ffixu)
    x$fpl$fflt                               0x08002e78   Section       48  fflt_clz.o(x$fpl$fflt)
    x$fpl$ffltu                              0x08002ea8   Section       38  fflt_clz.o(x$fpl$ffltu)
    x$fpl$fleqf                              0x08002ed0   Section      104  fleqf.o(x$fpl$fleqf)
    x$fpl$fmul                               0x08002f38   Section      258  fmul.o(x$fpl$fmul)
    x$fpl$fnaninf                            0x0800303a   Section      140  fnaninf.o(x$fpl$fnaninf)
    x$fpl$fretinf                            0x080030c6   Section       10  fretinf.o(x$fpl$fretinf)
    x$fpl$frleqf                             0x080030d0   Section       98  frleqf.o(x$fpl$frleqf)
    x$fpl$frsb                               0x08003132   Section       20  faddsub_clz.o(x$fpl$frsb)
    x$fpl$fsub                               0x08003148   Section      234  faddsub_clz.o(x$fpl$fsub)
    _fsub1                                   0x08003157   Thumb Code     0  faddsub_clz.o(x$fpl$fsub)
    x$fpl$retnan                             0x08003232   Section      100  retnan.o(x$fpl$retnan)
    x$fpl$scalbn                             0x08003296   Section       92  scalbn.o(x$fpl$scalbn)
    x$fpl$trapveneer                         0x080032f2   Section       48  trapv.o(x$fpl$trapveneer)
    .constdata                               0x08003322   Section     1520  ml_oled.o(.constdata)
    x$fpl$usenofp                            0x08003322   Section        0  usenofp.o(x$fpl$usenofp)
    .constdata                               0x08003918   Section      152  atan.o(.constdata)
    atanhi                                   0x08003918   Data          32  atan.o(.constdata)
    atanlo                                   0x08003938   Data          32  atan.o(.constdata)
    aTodd                                    0x08003958   Data          40  atan.o(.constdata)
    aTeven                                   0x08003980   Data          48  atan.o(.constdata)
    .constdata                               0x080039b0   Section        8  qnan.o(.constdata)
    .data                                    0x20000000   Section       16  motor.o(.data)
    .data                                    0x20000010   Section      144  filter.o(.data)
    .data                                    0x200000a0   Section       12  ml_gpio.o(.data)
    .data                                    0x200000ac   Section       12  ml_tim.o(.data)
    .data                                    0x200000b8   Section       16  ml_uart.o(.data)
    .data                                    0x200000c8   Section       48  ml_mpu6050.o(.data)
    .data                                    0x200000f8   Section       12  ml_hmc5883l.o(.data)
    .bss                                     0x20000104   Section      156  pid.o(.bss)
    .bss                                     0x200001a0   Section       96  libspace.o(.bss)
    HEAP                                     0x20000200   Section      512  startup_stm32f10x_md.o(HEAP)
    Heap_Mem                                 0x20000200   Data         512  startup_stm32f10x_md.o(HEAP)
    STACK                                    0x20000400   Section     1024  startup_stm32f10x_md.o(STACK)
    Stack_Mem                                0x20000400   Data        1024  startup_stm32f10x_md.o(STACK)
    __initial_sp                             0x20000800   Data           0  startup_stm32f10x_md.o(STACK)

    Global Symbols

    Symbol Name                              Value     Ov Type        Size  Object(Section)

    BuildAttributes$$THM_ISAv4$P$D$K$B$S$PE$A:L22UL41UL21$X:L11$S22US41US21$IEEE1$IW$USESV6$~STKCKD$USESV7$~SHL$OTIME$ROPI$IEEEX$EBA8$UX$STANDARDLIB$REQ8$PRES8$EABIv2 0x00000000   Number         0  anon$$obj.o ABSOLUTE
    __ARM_use_no_argv                        0x00000000   Number         0  main.o ABSOLUTE
    __ARM_exceptions_init                     - Undefined Weak Reference
    __alloca_initialize                       - Undefined Weak Reference
    __arm_preinit_                            - Undefined Weak Reference
    __cpp_initialize__aeabi_                  - Undefined Weak Reference
    __cxa_finalize                            - Undefined Weak Reference
    __rt_locale                               - Undefined Weak Reference
    __sigvec_lookup                           - Undefined Weak Reference
    _atexit_init                              - Undefined Weak Reference
    _call_atexit_fns                          - Undefined Weak Reference
    _clock_init                               - Undefined Weak Reference
    _fp_trap_init                             - Undefined Weak Reference
    _fp_trap_shutdown                         - Undefined Weak Reference
    _get_lc_collate                           - Undefined Weak Reference
    _get_lc_ctype                             - Undefined Weak Reference
    _get_lc_monetary                          - Undefined Weak Reference
    _get_lc_numeric                           - Undefined Weak Reference
    _get_lc_time                              - Undefined Weak Reference
    _getenv_init                              - Undefined Weak Reference
    _handle_redirection                       - Undefined Weak Reference
    _init_alloc                               - Undefined Weak Reference
    _init_user_alloc                          - Undefined Weak Reference
    _initio                                   - Undefined Weak Reference
    _rand_init                                - Undefined Weak Reference
    _signal_finish                            - Undefined Weak Reference
    _signal_init                              - Undefined Weak Reference
    _terminate_alloc                          - Undefined Weak Reference
    _terminate_user_alloc                     - Undefined Weak Reference
    _terminateio                              - Undefined Weak Reference
    __Vectors_Size                           0x000000ec   Number         0  startup_stm32f10x_md.o ABSOLUTE
    __Vectors                                0x08000000   Data           4  startup_stm32f10x_md.o(RESET)
    __Vectors_End                            0x080000ec   Data           0  startup_stm32f10x_md.o(RESET)
    __main                                   0x080000ed   Thumb Code     8  __main.o(!!!main)
    __scatterload                            0x080000f5   Thumb Code     0  __scatter.o(!!!scatter)
    __scatterload_rt2                        0x080000f5   Thumb Code    44  __scatter.o(!!!scatter)
    __scatterload_rt2_thumb_only             0x080000f5   Thumb Code     0  __scatter.o(!!!scatter)
    __scatterload_null                       0x08000103   Thumb Code     0  __scatter.o(!!!scatter)
    __scatterload_copy                       0x08000129   Thumb Code    26  __scatter_copy.o(!!handler_copy)
    __scatterload_zeroinit                   0x08000145   Thumb Code    28  __scatter_zi.o(!!handler_zi)
    __rt_lib_init                            0x08000161   Thumb Code     0  libinit.o(.ARM.Collect$$libinit$$00000000)
    __rt_lib_init_alloca_1                   0x08000163   Thumb Code     0  libinit2.o(.ARM.Collect$$libinit$$0000002E)
    __rt_lib_init_argv_1                     0x08000163   Thumb Code     0  libinit2.o(.ARM.Collect$$libinit$$0000002C)
    __rt_lib_init_atexit_1                   0x08000163   Thumb Code     0  libinit2.o(.ARM.Collect$$libinit$$0000001B)
    __rt_lib_init_clock_1                    0x08000163   Thumb Code     0  libinit2.o(.ARM.Collect$$libinit$$00000021)
    __rt_lib_init_cpp_1                      0x08000163   Thumb Code     0  libinit2.o(.ARM.Collect$$libinit$$00000032)
    __rt_lib_init_exceptions_1               0x08000163   Thumb Code     0  libinit2.o(.ARM.Collect$$libinit$$00000030)
    __rt_lib_init_fp_1                       0x08000163   Thumb Code     0  libinit2.o(.ARM.Collect$$libinit$$00000002)
    __rt_lib_init_fp_trap_1                  0x08000163   Thumb Code     0  libinit2.o(.ARM.Collect$$libinit$$0000001F)
    __rt_lib_init_getenv_1                   0x08000163   Thumb Code     0  libinit2.o(.ARM.Collect$$libinit$$00000023)
    __rt_lib_init_heap_1                     0x08000163   Thumb Code     0  libinit2.o(.ARM.Collect$$libinit$$0000000A)
    __rt_lib_init_lc_collate_1               0x08000163   Thumb Code     0  libinit2.o(.ARM.Collect$$libinit$$00000011)
    __rt_lib_init_lc_ctype_1                 0x08000163   Thumb Code     0  libinit2.o(.ARM.Collect$$libinit$$00000013)
    __rt_lib_init_lc_monetary_1              0x08000163   Thumb Code     0  libinit2.o(.ARM.Collect$$libinit$$00000015)
    __rt_lib_init_lc_numeric_1               0x08000163   Thumb Code     0  libinit2.o(.ARM.Collect$$libinit$$00000017)
    __rt_lib_init_lc_time_1                  0x08000163   Thumb Code     0  libinit2.o(.ARM.Collect$$libinit$$00000019)
    __rt_lib_init_preinit_1                  0x08000163   Thumb Code     0  libinit2.o(.ARM.Collect$$libinit$$00000004)
    __rt_lib_init_rand_1                     0x08000163   Thumb Code     0  libinit2.o(.ARM.Collect$$libinit$$0000000E)
    __rt_lib_init_return                     0x08000163   Thumb Code     0  libinit2.o(.ARM.Collect$$libinit$$00000033)
    __rt_lib_init_signal_1                   0x08000163   Thumb Code     0  libinit2.o(.ARM.Collect$$libinit$$0000001D)
    __rt_lib_init_stdio_1                    0x08000163   Thumb Code     0  libinit2.o(.ARM.Collect$$libinit$$00000025)
    __rt_lib_init_user_alloc_1               0x08000163   Thumb Code     0  libinit2.o(.ARM.Collect$$libinit$$0000000C)
    __rt_lib_shutdown                        0x08000165   Thumb Code     0  libshutdown.o(.ARM.Collect$$libshutdown$$00000000)
    __rt_lib_shutdown_cpp_1                  0x08000167   Thumb Code     0  libshutdown2.o(.ARM.Collect$$libshutdown$$00000002)
    __rt_lib_shutdown_fp_trap_1              0x08000167   Thumb Code     0  libshutdown2.o(.ARM.Collect$$libshutdown$$00000007)
    __rt_lib_shutdown_heap_1                 0x08000167   Thumb Code     0  libshutdown2.o(.ARM.Collect$$libshutdown$$0000000F)
    __rt_lib_shutdown_return                 0x08000167   Thumb Code     0  libshutdown2.o(.ARM.Collect$$libshutdown$$00000010)
    __rt_lib_shutdown_signal_1               0x08000167   Thumb Code     0  libshutdown2.o(.ARM.Collect$$libshutdown$$0000000A)
    __rt_lib_shutdown_stdio_1                0x08000167   Thumb Code     0  libshutdown2.o(.ARM.Collect$$libshutdown$$00000004)
    __rt_lib_shutdown_user_alloc_1           0x08000167   Thumb Code     0  libshutdown2.o(.ARM.Collect$$libshutdown$$0000000C)
    __rt_entry                               0x08000169   Thumb Code     0  __rtentry.o(.ARM.Collect$$rtentry$$00000000)
    __rt_entry_presh_1                       0x08000169   Thumb Code     0  __rtentry2.o(.ARM.Collect$$rtentry$$00000002)
    __rt_entry_sh                            0x08000169   Thumb Code     0  __rtentry4.o(.ARM.Collect$$rtentry$$00000004)
    __rt_entry_li                            0x0800016f   Thumb Code     0  __rtentry2.o(.ARM.Collect$$rtentry$$0000000A)
    __rt_entry_postsh_1                      0x0800016f   Thumb Code     0  __rtentry2.o(.ARM.Collect$$rtentry$$00000009)
    __rt_entry_main                          0x08000173   Thumb Code     0  __rtentry2.o(.ARM.Collect$$rtentry$$0000000D)
    __rt_entry_postli_1                      0x08000173   Thumb Code     0  __rtentry2.o(.ARM.Collect$$rtentry$$0000000C)
    __rt_exit                                0x0800017b   Thumb Code     0  rtexit.o(.ARM.Collect$$rtexit$$00000000)
    __rt_exit_ls                             0x0800017d   Thumb Code     0  rtexit2.o(.ARM.Collect$$rtexit$$00000003)
    __rt_exit_prels_1                        0x0800017d   Thumb Code     0  rtexit2.o(.ARM.Collect$$rtexit$$00000002)
    __rt_exit_exit                           0x08000181   Thumb Code     0  rtexit2.o(.ARM.Collect$$rtexit$$00000004)
    Reset_Handler                            0x08000189   Thumb Code     8  startup_stm32f10x_md.o(.text)
    NMI_Handler                              0x08000191   Thumb Code     2  startup_stm32f10x_md.o(.text)
    HardFault_Handler                        0x08000193   Thumb Code     2  startup_stm32f10x_md.o(.text)
    MemManage_Handler                        0x08000195   Thumb Code     2  startup_stm32f10x_md.o(.text)
    BusFault_Handler                         0x08000197   Thumb Code     2  startup_stm32f10x_md.o(.text)
    UsageFault_Handler                       0x08000199   Thumb Code     2  startup_stm32f10x_md.o(.text)
    SVC_Handler                              0x0800019b   Thumb Code     2  startup_stm32f10x_md.o(.text)
    DebugMon_Handler                         0x0800019d   Thumb Code     2  startup_stm32f10x_md.o(.text)
    PendSV_Handler                           0x0800019f   Thumb Code     2  startup_stm32f10x_md.o(.text)
    SysTick_Handler                          0x080001a1   Thumb Code     2  startup_stm32f10x_md.o(.text)
    ADC1_2_IRQHandler                        0x080001a3   Thumb Code     0  startup_stm32f10x_md.o(.text)
    CAN1_RX1_IRQHandler                      0x080001a3   Thumb Code     0  startup_stm32f10x_md.o(.text)
    CAN1_SCE_IRQHandler                      0x080001a3   Thumb Code     0  startup_stm32f10x_md.o(.text)
    DMA1_Channel1_IRQHandler                 0x080001a3   Thumb Code     0  startup_stm32f10x_md.o(.text)
    DMA1_Channel2_IRQHandler                 0x080001a3   Thumb Code     0  startup_stm32f10x_md.o(.text)
    DMA1_Channel3_IRQHandler                 0x080001a3   Thumb Code     0  startup_stm32f10x_md.o(.text)
    DMA1_Channel4_IRQHandler                 0x080001a3   Thumb Code     0  startup_stm32f10x_md.o(.text)
    DMA1_Channel5_IRQHandler                 0x080001a3   Thumb Code     0  startup_stm32f10x_md.o(.text)
    DMA1_Channel6_IRQHandler                 0x080001a3   Thumb Code     0  startup_stm32f10x_md.o(.text)
    DMA1_Channel7_IRQHandler                 0x080001a3   Thumb Code     0  startup_stm32f10x_md.o(.text)
    EXTI15_10_IRQHandler                     0x080001a3   Thumb Code     0  startup_stm32f10x_md.o(.text)
    FLASH_IRQHandler                         0x080001a3   Thumb Code     0  startup_stm32f10x_md.o(.text)
    I2C1_ER_IRQHandler                       0x080001a3   Thumb Code     0  startup_stm32f10x_md.o(.text)
    I2C1_EV_IRQHandler                       0x080001a3   Thumb Code     0  startup_stm32f10x_md.o(.text)
    I2C2_ER_IRQHandler                       0x080001a3   Thumb Code     0  startup_stm32f10x_md.o(.text)
    I2C2_EV_IRQHandler                       0x080001a3   Thumb Code     0  startup_stm32f10x_md.o(.text)
    PVD_IRQHandler                           0x080001a3   Thumb Code     0  startup_stm32f10x_md.o(.text)
    RCC_IRQHandler                           0x080001a3   Thumb Code     0  startup_stm32f10x_md.o(.text)
    RTCAlarm_IRQHandler                      0x080001a3   Thumb Code     0  startup_stm32f10x_md.o(.text)
    RTC_IRQHandler                           0x080001a3   Thumb Code     0  startup_stm32f10x_md.o(.text)
    SPI1_IRQHandler                          0x080001a3   Thumb Code     0  startup_stm32f10x_md.o(.text)
    SPI2_IRQHandler                          0x080001a3   Thumb Code     0  startup_stm32f10x_md.o(.text)
    TAMPER_IRQHandler                        0x080001a3   Thumb Code     0  startup_stm32f10x_md.o(.text)
    TIM1_BRK_IRQHandler                      0x080001a3   Thumb Code     0  startup_stm32f10x_md.o(.text)
    TIM1_CC_IRQHandler                       0x080001a3   Thumb Code     0  startup_stm32f10x_md.o(.text)
    TIM1_TRG_COM_IRQHandler                  0x080001a3   Thumb Code     0  startup_stm32f10x_md.o(.text)
    TIM1_UP_IRQHandler                       0x080001a3   Thumb Code     0  startup_stm32f10x_md.o(.text)
    USBWakeUp_IRQHandler                     0x080001a3   Thumb Code     0  startup_stm32f10x_md.o(.text)
    USB_HP_CAN1_TX_IRQHandler                0x080001a3   Thumb Code     0  startup_stm32f10x_md.o(.text)
    USB_LP_CAN1_RX0_IRQHandler               0x080001a3   Thumb Code     0  startup_stm32f10x_md.o(.text)
    WWDG_IRQHandler                          0x080001a3   Thumb Code     0  startup_stm32f10x_md.o(.text)
    __user_initial_stackheap                 0x080001a5   Thumb Code     0  startup_stm32f10x_md.o(.text)
    __use_no_semihosting                     0x080001c9   Thumb Code     2  use_no_semi_2.o(.text)
    __use_two_region_memory                  0x080001cb   Thumb Code     2  heapauxi.o(.text)
    __rt_heap_escrow$2region                 0x080001cd   Thumb Code     2  heapauxi.o(.text)
    __rt_heap_expand$2region                 0x080001cf   Thumb Code     2  heapauxi.o(.text)
    __I$use$semihosting                      0x080001d1   Thumb Code     0  use_no_semi.o(.text)
    __use_no_semihosting_swi                 0x080001d1   Thumb Code     2  use_no_semi.o(.text)
    __user_libspace                          0x080001d5   Thumb Code     8  libspace.o(.text)
    __user_perproc_libspace                  0x080001d5   Thumb Code     0  libspace.o(.text)
    __user_perthread_libspace                0x080001d5   Thumb Code     0  libspace.o(.text)
    __user_setup_stackheap                   0x080001dd   Thumb Code    74  sys_stackheap_outer.o(.text)
    exit                                     0x08000227   Thumb Code    18  exit.o(.text)
    EXTI0_IRQHandler                         0x08000239   Thumb Code    18  isr.o(i.EXTI0_IRQHandler)
    EXTI1_IRQHandler                         0x08000251   Thumb Code    18  isr.o(i.EXTI1_IRQHandler)
    EXTI2_IRQHandler                         0x08000269   Thumb Code    52  isr.o(i.EXTI2_IRQHandler)
    EXTI3_IRQHandler                         0x080002a5   Thumb Code    18  isr.o(i.EXTI3_IRQHandler)
    EXTI4_IRQHandler                         0x080002bd   Thumb Code    52  isr.o(i.EXTI4_IRQHandler)
    EXTI9_5_IRQHandler                       0x080002f9   Thumb Code   732  isr.o(i.EXTI9_5_IRQHandler)
    HMC5883L_GetData                         0x08000641   Thumb Code    82  ml_hmc5883l.o(i.HMC5883L_GetData)
    HMC5883L_Init                            0x080006a1   Thumb Code    28  ml_hmc5883l.o(i.HMC5883L_Init)
    HMC5883L_Read                            0x080006bd   Thumb Code    64  ml_hmc5883l.o(i.HMC5883L_Read)
    HMC5883L_Write                           0x080006fd   Thumb Code    46  ml_hmc5883l.o(i.HMC5883L_Write)
    I2C_Init                                 0x0800072b   Thumb Code    44  ml_i2c.o(i.I2C_Init)
    I2C_NotSendAck                           0x08000757   Thumb Code    34  ml_i2c.o(i.I2C_NotSendAck)
    I2C_ReceiveByte                          0x08000779   Thumb Code    64  ml_i2c.o(i.I2C_ReceiveByte)
    I2C_SendByte                             0x080007b9   Thumb Code    66  ml_i2c.o(i.I2C_SendByte)
    I2C_Start                                0x080007fb   Thumb Code    44  ml_i2c.o(i.I2C_Start)
    I2C_Stop                                 0x08000827   Thumb Code    34  ml_i2c.o(i.I2C_Stop)
    I2C_WaitAck                              0x08000849   Thumb Code    48  ml_i2c.o(i.I2C_WaitAck)
    Kalman_Filter                            0x08000879   Thumb Code   320  filter.o(i.Kalman_Filter)
    MPU6050_GetData                          0x080009b9   Thumb Code   160  ml_mpu6050.o(i.MPU6050_GetData)
    MPU6050_Init                             0x08000a71   Thumb Code    52  ml_mpu6050.o(i.MPU6050_Init)
    MPU6050_Read                             0x08000aa5   Thumb Code    64  ml_mpu6050.o(i.MPU6050_Read)
    MPU6050_Write                            0x08000ae5   Thumb Code    46  ml_mpu6050.o(i.MPU6050_Write)
    NVIC_Group_Config                        0x08000b15   Thumb Code    30  ml_nvic.o(i.NVIC_Group_Config)
    NVIC_init                                0x08000b3d   Thumb Code    70  ml_nvic.o(i.NVIC_init)
    OLED_Clear                               0x08000b89   Thumb Code    42  ml_oled.o(i.OLED_Clear)
    OLED_I2C_Init                            0x08000bb3   Thumb Code    44  ml_oled.o(i.OLED_I2C_Init)
    OLED_I2C_SendByte                        0x08000bdf   Thumb Code    74  ml_oled.o(i.OLED_I2C_SendByte)
    OLED_I2C_Start                           0x08000c29   Thumb Code    44  ml_oled.o(i.OLED_I2C_Start)
    OLED_I2C_Stop                            0x08000c55   Thumb Code    34  ml_oled.o(i.OLED_I2C_Stop)
    OLED_Init                                0x08000c77   Thumb Code   174  ml_oled.o(i.OLED_Init)
    OLED_Pow                                 0x08000d25   Thumb Code    20  ml_oled.o(i.OLED_Pow)
    OLED_SetCursor                           0x08000d39   Thumb Code    34  ml_oled.o(i.OLED_SetCursor)
    OLED_ShowChar                            0x08000d5d   Thumb Code   110  ml_oled.o(i.OLED_ShowChar)
    OLED_ShowNum                             0x08000dd1   Thumb Code    68  ml_oled.o(i.OLED_ShowNum)
    OLED_WriteCommand                        0x08000e15   Thumb Code    32  ml_oled.o(i.OLED_WriteCommand)
    OLED_WriteData                           0x08000e35   Thumb Code    32  ml_oled.o(i.OLED_WriteData)
    SystemInit                               0x08000f3d   Thumb Code    78  system_stm32f10x.o(i.SystemInit)
    TIM2_IRQHandler                          0x08000f9d   Thumb Code    30  isr.o(i.TIM2_IRQHandler)
    TIM3_IRQHandler                          0x08000fbd   Thumb Code    30  isr.o(i.TIM3_IRQHandler)
    TIM4_IRQHandler                          0x08000fe1   Thumb Code    24  isr.o(i.TIM4_IRQHandler)
    USART1_IRQHandler                        0x08000ffd   Thumb Code    24  isr.o(i.USART1_IRQHandler)
    USART2_IRQHandler                        0x08001019   Thumb Code    24  isr.o(i.USART2_IRQHandler)
    USART3_IRQHandler                        0x08001035   Thumb Code    24  isr.o(i.USART3_IRQHandler)
    __ARM_fpclassify                         0x08001051   Thumb Code    40  fpclassify.o(i.__ARM_fpclassify)
    __kernel_poly                            0x08001079   Thumb Code   170  poly.o(i.__kernel_poly)
    __mathlib_dbl_infnan                     0x08001123   Thumb Code     6  dunder.o(i.__mathlib_dbl_infnan)
    __mathlib_dbl_infnan2                    0x08001129   Thumb Code     4  dunder.o(i.__mathlib_dbl_infnan2)
    __mathlib_dbl_underflow                  0x0800112d   Thumb Code    10  dunder.o(i.__mathlib_dbl_underflow)
    _sys_exit                                0x0800113d   Thumb Code     4  ml_uart.o(i._sys_exit)
    atan                                     0x08001141   Thumb Code   474  atan.o(i.atan)
    atan2                                    0x08001361   Thumb Code   346  atan2.o(i.atan2)
    delay_ms                                 0x080014e1   Thumb Code    24  ml_delay.o(i.delay_ms)
    delay_us                                 0x080014f9   Thumb Code    46  ml_delay.o(i.delay_us)
    encoder_init                             0x08001527   Thumb Code    44  motor.o(i.encoder_init)
    exti_init                                0x08001555   Thumb Code   254  ml_exti.o(i.exti_init)
    exti_pin_init                            0x08001661   Thumb Code   328  ml_exti.o(i.exti_pin_init)
    gpio_get                                 0x080017a9   Thumb Code    30  ml_gpio.o(i.gpio_get)
    gpio_init                                0x080017cd   Thumb Code   408  ml_gpio.o(i.gpio_init)
    gpio_set                                 0x08001971   Thumb Code    60  ml_gpio.o(i.gpio_set)
    gray_init                                0x080019b1   Thumb Code    84  gray_track.o(i.gray_init)
    main                                     0x08001a05   Thumb Code   144  main.o(i.main)
    motorA_duty                              0x08001aad   Thumb Code    50  motor.o(i.motorA_duty)
    motorB_duty                              0x08001ae5   Thumb Code    50  motor.o(i.motorB_duty)
    motor_init                               0x08001b1d   Thumb Code    68  motor.o(i.motor_init)
    motor_target_set                         0x08001b61   Thumb Code    84  pid.o(i.motor_target_set)
    pid_cal                                  0x08001bc5   Thumb Code   194  pid.o(i.pid_cal)
    pid_control                              0x08001c89   Thumb Code   184  pid.o(i.pid_control)
    pid_init                                 0x08001d65   Thumb Code    14  pid.o(i.pid_init)
    pidout_limit                             0x08001d75   Thumb Code    34  pid.o(i.pidout_limit)
    pwm_init                                 0x08001d9d   Thumb Code   354  ml_pwm.o(i.pwm_init)
    pwm_pin_init                             0x08001f0d   Thumb Code   172  ml_pwm.o(i.pwm_pin_init)
    pwm_update                               0x08001fb9   Thumb Code   266  ml_pwm.o(i.pwm_update)
    tim_interrupt_ms_init                    0x080020cd   Thumb Code   104  ml_tim.o(i.tim_interrupt_ms_init)
    uart_baud_config                         0x0800213d   Thumb Code   142  ml_uart.o(i.uart_baud_config)
    uart_init                                0x080021dd   Thumb Code    92  ml_uart.o(i.uart_init)
    uart_pin_init                            0x08002241   Thumb Code    86  ml_uart.o(i.uart_pin_init)
    __aeabi_d2f                              0x08002299   Thumb Code     0  d2f.o(x$fpl$d2f)
    _d2f                                     0x08002299   Thumb Code    98  d2f.o(x$fpl$d2f)
    __aeabi_dadd                             0x080022fd   Thumb Code     0  daddsub_clz.o(x$fpl$dadd)
    _dadd                                    0x080022fd   Thumb Code   332  daddsub_clz.o(x$fpl$dadd)
    __fpl_dcheck_NaN1                        0x0800244d   Thumb Code    10  dcheck1.o(x$fpl$dcheck1)
    __aeabi_ddiv                             0x0800245d   Thumb Code     0  ddiv.o(x$fpl$ddiv)
    _ddiv                                    0x0800245d   Thumb Code   552  ddiv.o(x$fpl$ddiv)
    __aeabi_i2d                              0x0800270d   Thumb Code     0  dflt_clz.o(x$fpl$dflt)
    _dflt                                    0x0800270d   Thumb Code    46  dflt_clz.o(x$fpl$dflt)
    __aeabi_ui2d                             0x0800273b   Thumb Code     0  dflt_clz.o(x$fpl$dfltu)
    _dfltu                                   0x0800273b   Thumb Code    38  dflt_clz.o(x$fpl$dfltu)
    __aeabi_dmul                             0x08002761   Thumb Code     0  dmul.o(x$fpl$dmul)
    _dmul                                    0x08002761   Thumb Code   332  dmul.o(x$fpl$dmul)
    __fpl_dnaninf                            0x080028b5   Thumb Code   156  dnaninf.o(x$fpl$dnaninf)
    __fpl_dretinf                            0x08002951   Thumb Code    12  dretinf.o(x$fpl$dretinf)
    __aeabi_drsub                            0x0800295d   Thumb Code     0  daddsub_clz.o(x$fpl$drsb)
    _drsb                                    0x0800295d   Thumb Code    22  daddsub_clz.o(x$fpl$drsb)
    __aeabi_dsub                             0x08002975   Thumb Code     0  daddsub_clz.o(x$fpl$dsub)
    _dsub                                    0x08002975   Thumb Code   464  daddsub_clz.o(x$fpl$dsub)
    __aeabi_f2d                              0x08002b49   Thumb Code     0  f2d.o(x$fpl$f2d)
    _f2d                                     0x08002b49   Thumb Code    86  f2d.o(x$fpl$f2d)
    __aeabi_fadd                             0x08002ba1   Thumb Code     0  faddsub_clz.o(x$fpl$fadd)
    _fadd                                    0x08002ba1   Thumb Code   196  faddsub_clz.o(x$fpl$fadd)
    __fpl_fcmp_Inf                           0x08002c65   Thumb Code    24  fcmpi.o(x$fpl$fcmpinf)
    __aeabi_fdiv                             0x08002c7d   Thumb Code     0  fdiv.o(x$fpl$fdiv)
    _fdiv                                    0x08002c7d   Thumb Code   384  fdiv.o(x$fpl$fdiv)
    __aeabi_f2iz                             0x08002e01   Thumb Code     0  ffix.o(x$fpl$ffix)
    _ffix                                    0x08002e01   Thumb Code    54  ffix.o(x$fpl$ffix)
    __aeabi_f2uiz                            0x08002e39   Thumb Code     0  ffixu.o(x$fpl$ffixu)
    _ffixu                                   0x08002e39   Thumb Code    62  ffixu.o(x$fpl$ffixu)
    __aeabi_i2f                              0x08002e79   Thumb Code     0  fflt_clz.o(x$fpl$fflt)
    _fflt                                    0x08002e79   Thumb Code    48  fflt_clz.o(x$fpl$fflt)
    __aeabi_ui2f                             0x08002ea9   Thumb Code     0  fflt_clz.o(x$fpl$ffltu)
    _ffltu                                   0x08002ea9   Thumb Code    38  fflt_clz.o(x$fpl$ffltu)
    __aeabi_cfcmple                          0x08002ed1   Thumb Code     0  fleqf.o(x$fpl$fleqf)
    _fcmple                                  0x08002ed1   Thumb Code   104  fleqf.o(x$fpl$fleqf)
    __fpl_fcmple_InfNaN                      0x08002f23   Thumb Code     0  fleqf.o(x$fpl$fleqf)
    __aeabi_fmul                             0x08002f39   Thumb Code     0  fmul.o(x$fpl$fmul)
    _fmul                                    0x08002f39   Thumb Code   258  fmul.o(x$fpl$fmul)
    __fpl_fnaninf                            0x0800303b   Thumb Code   140  fnaninf.o(x$fpl$fnaninf)
    __fpl_fretinf                            0x080030c7   Thumb Code    10  fretinf.o(x$fpl$fretinf)
    __aeabi_cfrcmple                         0x080030d1   Thumb Code     0  frleqf.o(x$fpl$frleqf)
    _frcmple                                 0x080030d1   Thumb Code    98  frleqf.o(x$fpl$frleqf)
    __aeabi_frsub                            0x08003133   Thumb Code     0  faddsub_clz.o(x$fpl$frsb)
    _frsb                                    0x08003133   Thumb Code    20  faddsub_clz.o(x$fpl$frsb)
    __aeabi_fsub                             0x08003149   Thumb Code     0  faddsub_clz.o(x$fpl$fsub)
    _fsub                                    0x08003149   Thumb Code   234  faddsub_clz.o(x$fpl$fsub)
    __fpl_return_NaN                         0x08003233   Thumb Code   100  retnan.o(x$fpl$retnan)
    __ARM_scalbn                             0x08003297   Thumb Code    92  scalbn.o(x$fpl$scalbn)
    __fpl_cmpreturn                          0x080032f3   Thumb Code    48  trapv.o(x$fpl$trapveneer)
    OLED_F8x16                               0x08003322   Data        1520  ml_oled.o(.constdata)
    __I$use$fp                               0x08003322   Number         0  usenofp.o(x$fpl$usenofp)
    __mathlib_zero                           0x080039b0   Data           8  qnan.o(.constdata)
    Region$$Table$$Base                      0x080039b8   Number         0  anon$$obj.o(Region$$Table)
    Region$$Table$$Limit                     0x080039d8   Number         0  anon$$obj.o(Region$$Table)
    motorA_dir                               0x20000000   Data           1  motor.o(.data)
    motorB_dir                               0x20000001   Data           1  motor.o(.data)
    Encoder_count1                           0x20000004   Data           4  motor.o(.data)
    Encoder_count2                           0x20000008   Data           4  motor.o(.data)
    speed_now                                0x2000000c   Data           4  motor.o(.data)
    KF_Yaw                                   0x20000010   Data          48  filter.o(.data)
    KF_Roll                                  0x20000040   Data          48  filter.o(.data)
    KF_Pitch                                 0x20000070   Data          48  filter.o(.data)
    gpio_index                               0x200000a0   Data          12  ml_gpio.o(.data)
    tim_index                                0x200000ac   Data          12  ml_tim.o(.data)
    uart_index                               0x200000b8   Data          12  ml_uart.o(.data)
    __stdout                                 0x200000c4   Data           4  ml_uart.o(.data)
    ax                                       0x200000c8   Data           2  ml_mpu6050.o(.data)
    ay                                       0x200000ca   Data           2  ml_mpu6050.o(.data)
    az                                       0x200000cc   Data           2  ml_mpu6050.o(.data)
    gx                                       0x200000ce   Data           2  ml_mpu6050.o(.data)
    gy                                       0x200000d0   Data           2  ml_mpu6050.o(.data)
    gz                                       0x200000d2   Data           2  ml_mpu6050.o(.data)
    roll_gyro                                0x200000d4   Data           4  ml_mpu6050.o(.data)
    pitch_gyro                               0x200000d8   Data           4  ml_mpu6050.o(.data)
    yaw_gyro                                 0x200000dc   Data           4  ml_mpu6050.o(.data)
    roll_acc                                 0x200000e0   Data           4  ml_mpu6050.o(.data)
    pitch_acc                                0x200000e4   Data           4  ml_mpu6050.o(.data)
    yaw_acc                                  0x200000e8   Data           4  ml_mpu6050.o(.data)
    roll_Kalman                              0x200000ec   Data           4  ml_mpu6050.o(.data)
    pitch_Kalman                             0x200000f0   Data           4  ml_mpu6050.o(.data)
    yaw_Kalman                               0x200000f4   Data           4  ml_mpu6050.o(.data)
    hmc_x                                    0x200000f8   Data           2  ml_hmc5883l.o(.data)
    hmc_y                                    0x200000fa   Data           2  ml_hmc5883l.o(.data)
    hmc_z                                    0x200000fc   Data           2  ml_hmc5883l.o(.data)
    yaw_hmc                                  0x20000100   Data           4  ml_hmc5883l.o(.data)
    motorA                                   0x20000104   Data          52  pid.o(.bss)
    motorB                                   0x20000138   Data          52  pid.o(.bss)
    angle                                    0x2000016c   Data          52  pid.o(.bss)
    __libspace_start                         0x200001a0   Data          96  libspace.o(.bss)
    __temporary_stack_top$libspace           0x20000200   Data           0  libspace.o(.bss)



==============================================================================

Memory Map of the image

  Image Entry point : 0x080000ed

  Load Region LR_IROM1 (Base: 0x08000000, Size: 0x00003adc, Max: 0x00010000, ABSOLUTE)

    Execution Region ER_IROM1 (Exec base: 0x08000000, Load base: 0x08000000, Size: 0x000039d8, Max: 0x00010000, ABSOLUTE)

    Exec Addr    Load Addr    Size         Type   Attr      Idx    E Section Name        Object

    0x08000000   0x08000000   0x000000ec   Data   RO          366    RESET               startup_stm32f10x_md.o
    0x080000ec   0x080000ec   0x00000008   Code   RO          934  * !!!main             c_w.l(__main.o)
    0x080000f4   0x080000f4   0x00000034   Code   RO         1234    !!!scatter          c_w.l(__scatter.o)
    0x08000128   0x08000128   0x0000001a   Code   RO         1236    !!handler_copy      c_w.l(__scatter_copy.o)
    0x08000142   0x08000142   0x00000002   PAD
    0x08000144   0x08000144   0x0000001c   Code   RO         1238    !!handler_zi        c_w.l(__scatter_zi.o)
    0x08000160   0x08000160   0x00000002   Code   RO         1105    .ARM.Collect$$libinit$$00000000  c_w.l(libinit.o)
    0x08000162   0x08000162   0x00000000   Code   RO         1113    .ARM.Collect$$libinit$$00000002  c_w.l(libinit2.o)
    0x08000162   0x08000162   0x00000000   Code   RO         1115    .ARM.Collect$$libinit$$00000004  c_w.l(libinit2.o)
    0x08000162   0x08000162   0x00000000   Code   RO         1118    .ARM.Collect$$libinit$$0000000A  c_w.l(libinit2.o)
    0x08000162   0x08000162   0x00000000   Code   RO         1120    .ARM.Collect$$libinit$$0000000C  c_w.l(libinit2.o)
    0x08000162   0x08000162   0x00000000   Code   RO         1122    .ARM.Collect$$libinit$$0000000E  c_w.l(libinit2.o)
    0x08000162   0x08000162   0x00000000   Code   RO         1125    .ARM.Collect$$libinit$$00000011  c_w.l(libinit2.o)
    0x08000162   0x08000162   0x00000000   Code   RO         1127    .ARM.Collect$$libinit$$00000013  c_w.l(libinit2.o)
    0x08000162   0x08000162   0x00000000   Code   RO         1129    .ARM.Collect$$libinit$$00000015  c_w.l(libinit2.o)
    0x08000162   0x08000162   0x00000000   Code   RO         1131    .ARM.Collect$$libinit$$00000017  c_w.l(libinit2.o)
    0x08000162   0x08000162   0x00000000   Code   RO         1133    .ARM.Collect$$libinit$$00000019  c_w.l(libinit2.o)
    0x08000162   0x08000162   0x00000000   Code   RO         1135    .ARM.Collect$$libinit$$0000001B  c_w.l(libinit2.o)
    0x08000162   0x08000162   0x00000000   Code   RO         1137    .ARM.Collect$$libinit$$0000001D  c_w.l(libinit2.o)
    0x08000162   0x08000162   0x00000000   Code   RO         1139    .ARM.Collect$$libinit$$0000001F  c_w.l(libinit2.o)
    0x08000162   0x08000162   0x00000000   Code   RO         1141    .ARM.Collect$$libinit$$00000021  c_w.l(libinit2.o)
    0x08000162   0x08000162   0x00000000   Code   RO         1143    .ARM.Collect$$libinit$$00000023  c_w.l(libinit2.o)
    0x08000162   0x08000162   0x00000000   Code   RO         1145    .ARM.Collect$$libinit$$00000025  c_w.l(libinit2.o)
    0x08000162   0x08000162   0x00000000   Code   RO         1149    .ARM.Collect$$libinit$$0000002C  c_w.l(libinit2.o)
    0x08000162   0x08000162   0x00000000   Code   RO         1151    .ARM.Collect$$libinit$$0000002E  c_w.l(libinit2.o)
    0x08000162   0x08000162   0x00000000   Code   RO         1153    .ARM.Collect$$libinit$$00000030  c_w.l(libinit2.o)
    0x08000162   0x08000162   0x00000000   Code   RO         1155    .ARM.Collect$$libinit$$00000032  c_w.l(libinit2.o)
    0x08000162   0x08000162   0x00000002   Code   RO         1156    .ARM.Collect$$libinit$$00000033  c_w.l(libinit2.o)
    0x08000164   0x08000164   0x00000002   Code   RO         1176    .ARM.Collect$$libshutdown$$00000000  c_w.l(libshutdown.o)
    0x08000166   0x08000166   0x00000000   Code   RO         1186    .ARM.Collect$$libshutdown$$00000002  c_w.l(libshutdown2.o)
    0x08000166   0x08000166   0x00000000   Code   RO         1188    .ARM.Collect$$libshutdown$$00000004  c_w.l(libshutdown2.o)
    0x08000166   0x08000166   0x00000000   Code   RO         1191    .ARM.Collect$$libshutdown$$00000007  c_w.l(libshutdown2.o)
    0x08000166   0x08000166   0x00000000   Code   RO         1194    .ARM.Collect$$libshutdown$$0000000A  c_w.l(libshutdown2.o)
    0x08000166   0x08000166   0x00000000   Code   RO         1196    .ARM.Collect$$libshutdown$$0000000C  c_w.l(libshutdown2.o)
    0x08000166   0x08000166   0x00000000   Code   RO         1199    .ARM.Collect$$libshutdown$$0000000F  c_w.l(libshutdown2.o)
    0x08000166   0x08000166   0x00000002   Code   RO         1200    .ARM.Collect$$libshutdown$$00000010  c_w.l(libshutdown2.o)
    0x08000168   0x08000168   0x00000000   Code   RO         1022    .ARM.Collect$$rtentry$$00000000  c_w.l(__rtentry.o)
    0x08000168   0x08000168   0x00000000   Code   RO         1068    .ARM.Collect$$rtentry$$00000002  c_w.l(__rtentry2.o)
    0x08000168   0x08000168   0x00000006   Code   RO         1080    .ARM.Collect$$rtentry$$00000004  c_w.l(__rtentry4.o)
    0x0800016e   0x0800016e   0x00000000   Code   RO         1070    .ARM.Collect$$rtentry$$00000009  c_w.l(__rtentry2.o)
    0x0800016e   0x0800016e   0x00000004   Code   RO         1071    .ARM.Collect$$rtentry$$0000000A  c_w.l(__rtentry2.o)
    0x08000172   0x08000172   0x00000000   Code   RO         1073    .ARM.Collect$$rtentry$$0000000C  c_w.l(__rtentry2.o)
    0x08000172   0x08000172   0x00000008   Code   RO         1074    .ARM.Collect$$rtentry$$0000000D  c_w.l(__rtentry2.o)
    0x0800017a   0x0800017a   0x00000002   Code   RO         1110    .ARM.Collect$$rtexit$$00000000  c_w.l(rtexit.o)
    0x0800017c   0x0800017c   0x00000000   Code   RO         1160    .ARM.Collect$$rtexit$$00000002  c_w.l(rtexit2.o)
    0x0800017c   0x0800017c   0x00000004   Code   RO         1161    .ARM.Collect$$rtexit$$00000003  c_w.l(rtexit2.o)
    0x08000180   0x08000180   0x00000006   Code   RO         1162    .ARM.Collect$$rtexit$$00000004  c_w.l(rtexit2.o)
    0x08000186   0x08000186   0x00000002   PAD
    0x08000188   0x08000188   0x00000040   Code   RO          367    .text               startup_stm32f10x_md.o
    0x080001c8   0x080001c8   0x00000002   Code   RO          930    .text               c_w.l(use_no_semi_2.o)
    0x080001ca   0x080001ca   0x00000006   Code   RO          932    .text               c_w.l(heapauxi.o)
    0x080001d0   0x080001d0   0x00000002   Code   RO         1020    .text               c_w.l(use_no_semi.o)
    0x080001d2   0x080001d2   0x00000002   PAD
    0x080001d4   0x080001d4   0x00000008   Code   RO         1093    .text               c_w.l(libspace.o)
    0x080001dc   0x080001dc   0x0000004a   Code   RO         1096    .text               c_w.l(sys_stackheap_outer.o)
    0x08000226   0x08000226   0x00000012   Code   RO         1098    .text               c_w.l(exit.o)
    0x08000238   0x08000238   0x00000018   Code   RO           97    i.EXTI0_IRQHandler  isr.o
    0x08000250   0x08000250   0x00000018   Code   RO           98    i.EXTI1_IRQHandler  isr.o
    0x08000268   0x08000268   0x0000003c   Code   RO           99    i.EXTI2_IRQHandler  isr.o
    0x080002a4   0x080002a4   0x00000018   Code   RO          100    i.EXTI3_IRQHandler  isr.o
    0x080002bc   0x080002bc   0x0000003c   Code   RO          101    i.EXTI4_IRQHandler  isr.o
    0x080002f8   0x080002f8   0x00000348   Code   RO          102    i.EXTI9_5_IRQHandler  isr.o
    0x08000640   0x08000640   0x00000060   Code   RO          888    i.HMC5883L_GetData  ml_hmc5883l.o
    0x080006a0   0x080006a0   0x0000001c   Code   RO          889    i.HMC5883L_Init     ml_hmc5883l.o
    0x080006bc   0x080006bc   0x00000040   Code   RO          890    i.HMC5883L_Read     ml_hmc5883l.o
    0x080006fc   0x080006fc   0x0000002e   Code   RO          891    i.HMC5883L_Write    ml_hmc5883l.o
    0x0800072a   0x0800072a   0x0000002c   Code   RO          706    i.I2C_Init          ml_i2c.o
    0x08000756   0x08000756   0x00000022   Code   RO          707    i.I2C_NotSendAck    ml_i2c.o
    0x08000778   0x08000778   0x00000040   Code   RO          708    i.I2C_ReceiveByte   ml_i2c.o
    0x080007b8   0x080007b8   0x00000042   Code   RO          710    i.I2C_SendByte      ml_i2c.o
    0x080007fa   0x080007fa   0x0000002c   Code   RO          711    i.I2C_Start         ml_i2c.o
    0x08000826   0x08000826   0x00000022   Code   RO          712    i.I2C_Stop          ml_i2c.o
    0x08000848   0x08000848   0x00000030   Code   RO          713    i.I2C_WaitAck       ml_i2c.o
    0x08000878   0x08000878   0x00000140   Code   RO          299    i.Kalman_Filter     filter.o
    0x080009b8   0x080009b8   0x000000b8   Code   RO          666    i.MPU6050_GetData   ml_mpu6050.o
    0x08000a70   0x08000a70   0x00000034   Code   RO          667    i.MPU6050_Init      ml_mpu6050.o
    0x08000aa4   0x08000aa4   0x00000040   Code   RO          668    i.MPU6050_Read      ml_mpu6050.o
    0x08000ae4   0x08000ae4   0x0000002e   Code   RO          669    i.MPU6050_Write     ml_mpu6050.o
    0x08000b12   0x08000b12   0x00000002   PAD
    0x08000b14   0x08000b14   0x00000028   Code   RO          480    i.NVIC_Group_Config  ml_nvic.o
    0x08000b3c   0x08000b3c   0x0000004c   Code   RO          481    i.NVIC_init         ml_nvic.o
    0x08000b88   0x08000b88   0x0000002a   Code   RO          764    i.OLED_Clear        ml_oled.o
    0x08000bb2   0x08000bb2   0x0000002c   Code   RO          766    i.OLED_I2C_Init     ml_oled.o
    0x08000bde   0x08000bde   0x0000004a   Code   RO          767    i.OLED_I2C_SendByte  ml_oled.o
    0x08000c28   0x08000c28   0x0000002c   Code   RO          768    i.OLED_I2C_Start    ml_oled.o
    0x08000c54   0x08000c54   0x00000022   Code   RO          769    i.OLED_I2C_Stop     ml_oled.o
    0x08000c76   0x08000c76   0x000000ae   Code   RO          770    i.OLED_Init         ml_oled.o
    0x08000d24   0x08000d24   0x00000014   Code   RO          771    i.OLED_Pow          ml_oled.o
    0x08000d38   0x08000d38   0x00000022   Code   RO          772    i.OLED_SetCursor    ml_oled.o
    0x08000d5a   0x08000d5a   0x00000002   PAD
    0x08000d5c   0x08000d5c   0x00000074   Code   RO          774    i.OLED_ShowChar     ml_oled.o
    0x08000dd0   0x08000dd0   0x00000044   Code   RO          777    i.OLED_ShowNum      ml_oled.o
    0x08000e14   0x08000e14   0x00000020   Code   RO          780    i.OLED_WriteCommand  ml_oled.o
    0x08000e34   0x08000e34   0x00000020   Code   RO          781    i.OLED_WriteData    ml_oled.o
    0x08000e54   0x08000e54   0x00000008   Code   RO          323    i.SetSysClock       system_stm32f10x.o
    0x08000e5c   0x08000e5c   0x000000e0   Code   RO          324    i.SetSysClockTo72   system_stm32f10x.o
    0x08000f3c   0x08000f3c   0x00000060   Code   RO          326    i.SystemInit        system_stm32f10x.o
    0x08000f9c   0x08000f9c   0x0000001e   Code   RO          103    i.TIM2_IRQHandler   isr.o
    0x08000fba   0x08000fba   0x00000002   PAD
    0x08000fbc   0x08000fbc   0x00000024   Code   RO          104    i.TIM3_IRQHandler   isr.o
    0x08000fe0   0x08000fe0   0x0000001c   Code   RO          105    i.TIM4_IRQHandler   isr.o
    0x08000ffc   0x08000ffc   0x0000001c   Code   RO          106    i.USART1_IRQHandler  isr.o
    0x08001018   0x08001018   0x0000001c   Code   RO          107    i.USART2_IRQHandler  isr.o
    0x08001034   0x08001034   0x0000001c   Code   RO          108    i.USART3_IRQHandler  isr.o
    0x08001050   0x08001050   0x00000028   Code   RO         1054    i.__ARM_fpclassify  m_ws.l(fpclassify.o)
    0x08001078   0x08001078   0x000000aa   Code   RO         1056    i.__kernel_poly     m_ws.l(poly.o)
    0x08001122   0x08001122   0x00000006   Code   RO         1041    i.__mathlib_dbl_infnan  m_ws.l(dunder.o)
    0x08001128   0x08001128   0x00000004   Code   RO         1042    i.__mathlib_dbl_infnan2  m_ws.l(dunder.o)
    0x0800112c   0x0800112c   0x00000010   Code   RO         1046    i.__mathlib_dbl_underflow  m_ws.l(dunder.o)
    0x0800113c   0x0800113c   0x00000004   Code   RO          552    i._sys_exit         ml_uart.o
    0x08001140   0x08001140   0x00000220   Code   RO          993    i.atan              m_ws.l(atan.o)
    0x08001360   0x08001360   0x00000180   Code   RO         1003    i.atan2             m_ws.l(atan2.o)
    0x080014e0   0x080014e0   0x00000018   Code   RO          445    i.delay_ms          ml_delay.o
    0x080014f8   0x080014f8   0x0000002e   Code   RO          447    i.delay_us          ml_delay.o
    0x08001526   0x08001526   0x0000002c   Code   RO          179    i.encoder_init      motor.o
    0x08001552   0x08001552   0x00000002   PAD
    0x08001554   0x08001554   0x0000010c   Code   RO          644    i.exti_init         ml_exti.o
    0x08001660   0x08001660   0x00000148   Code   RO          645    i.exti_pin_init     ml_exti.o
    0x080017a8   0x080017a8   0x00000024   Code   RO          372    i.gpio_get          ml_gpio.o
    0x080017cc   0x080017cc   0x000001a4   Code   RO          373    i.gpio_init         ml_gpio.o
    0x08001970   0x08001970   0x00000040   Code   RO          374    i.gpio_set          ml_gpio.o
    0x080019b0   0x080019b0   0x00000054   Code   RO          272    i.gray_init         gray_track.o
    0x08001a04   0x08001a04   0x000000a8   Code   RO            1    i.main              main.o
    0x08001aac   0x08001aac   0x00000038   Code   RO          180    i.motorA_duty       motor.o
    0x08001ae4   0x08001ae4   0x00000038   Code   RO          181    i.motorB_duty       motor.o
    0x08001b1c   0x08001b1c   0x00000044   Code   RO          182    i.motor_init        motor.o
    0x08001b60   0x08001b60   0x00000064   Code   RO          220    i.motor_target_set  pid.o
    0x08001bc4   0x08001bc4   0x000000c2   Code   RO          221    i.pid_cal           pid.o
    0x08001c86   0x08001c86   0x00000002   PAD
    0x08001c88   0x08001c88   0x000000dc   Code   RO          222    i.pid_control       pid.o
    0x08001d64   0x08001d64   0x0000000e   Code   RO          223    i.pid_init          pid.o
    0x08001d72   0x08001d72   0x00000002   PAD
    0x08001d74   0x08001d74   0x00000028   Code   RO          224    i.pidout_limit      pid.o
    0x08001d9c   0x08001d9c   0x00000170   Code   RO          502    i.pwm_init          ml_pwm.o
    0x08001f0c   0x08001f0c   0x000000ac   Code   RO          503    i.pwm_pin_init      ml_pwm.o
    0x08001fb8   0x08001fb8   0x00000114   Code   RO          504    i.pwm_update        ml_pwm.o
    0x080020cc   0x080020cc   0x00000070   Code   RO          530    i.tim_interrupt_ms_init  ml_tim.o
    0x0800213c   0x0800213c   0x000000a0   Code   RO          554    i.uart_baud_config  ml_uart.o
    0x080021dc   0x080021dc   0x00000064   Code   RO          556    i.uart_init         ml_uart.o
    0x08002240   0x08002240   0x00000056   Code   RO          557    i.uart_pin_init     ml_uart.o
    0x08002296   0x08002296   0x00000002   PAD
    0x08002298   0x08002298   0x00000062   Code   RO          936    x$fpl$d2f           fz_ws.l(d2f.o)
    0x080022fa   0x080022fa   0x00000002   PAD
    0x080022fc   0x080022fc   0x00000150   Code   RO          938    x$fpl$dadd          fz_ws.l(daddsub_clz.o)
    0x0800244c   0x0800244c   0x00000010   Code   RO         1087    x$fpl$dcheck1       fz_ws.l(dcheck1.o)
    0x0800245c   0x0800245c   0x000002b0   Code   RO          945    x$fpl$ddiv          fz_ws.l(ddiv.o)
    0x0800270c   0x0800270c   0x0000002e   Code   RO          953    x$fpl$dflt          fz_ws.l(dflt_clz.o)
    0x0800273a   0x0800273a   0x00000026   Code   RO          952    x$fpl$dfltu         fz_ws.l(dflt_clz.o)
    0x08002760   0x08002760   0x00000154   Code   RO          958    x$fpl$dmul          fz_ws.l(dmul.o)
    0x080028b4   0x080028b4   0x0000009c   Code   RO         1025    x$fpl$dnaninf       fz_ws.l(dnaninf.o)
    0x08002950   0x08002950   0x0000000c   Code   RO         1027    x$fpl$dretinf       fz_ws.l(dretinf.o)
    0x0800295c   0x0800295c   0x00000016   Code   RO          939    x$fpl$drsb          fz_ws.l(daddsub_clz.o)
    0x08002972   0x08002972   0x00000002   PAD
    0x08002974   0x08002974   0x000001d4   Code   RO          940    x$fpl$dsub          fz_ws.l(daddsub_clz.o)
    0x08002b48   0x08002b48   0x00000056   Code   RO          960    x$fpl$f2d           fz_ws.l(f2d.o)
    0x08002b9e   0x08002b9e   0x00000002   PAD
    0x08002ba0   0x08002ba0   0x000000c4   Code   RO          962    x$fpl$fadd          fz_ws.l(faddsub_clz.o)
    0x08002c64   0x08002c64   0x00000018   Code   RO         1031    x$fpl$fcmpinf       fz_ws.l(fcmpi.o)
    0x08002c7c   0x08002c7c   0x00000184   Code   RO          969    x$fpl$fdiv          fz_ws.l(fdiv.o)
    0x08002e00   0x08002e00   0x00000036   Code   RO          972    x$fpl$ffix          fz_ws.l(ffix.o)
    0x08002e36   0x08002e36   0x00000002   PAD
    0x08002e38   0x08002e38   0x0000003e   Code   RO          976    x$fpl$ffixu         fz_ws.l(ffixu.o)
    0x08002e76   0x08002e76   0x00000002   PAD
    0x08002e78   0x08002e78   0x00000030   Code   RO          981    x$fpl$fflt          fz_ws.l(fflt_clz.o)
    0x08002ea8   0x08002ea8   0x00000026   Code   RO          980    x$fpl$ffltu         fz_ws.l(fflt_clz.o)
    0x08002ece   0x08002ece   0x00000002   PAD
    0x08002ed0   0x08002ed0   0x00000068   Code   RO          986    x$fpl$fleqf         fz_ws.l(fleqf.o)
    0x08002f38   0x08002f38   0x00000102   Code   RO          988    x$fpl$fmul          fz_ws.l(fmul.o)
    0x0800303a   0x0800303a   0x0000008c   Code   RO         1033    x$fpl$fnaninf       fz_ws.l(fnaninf.o)
    0x080030c6   0x080030c6   0x0000000a   Code   RO         1035    x$fpl$fretinf       fz_ws.l(fretinf.o)
    0x080030d0   0x080030d0   0x00000062   Code   RO          990    x$fpl$frleqf        fz_ws.l(frleqf.o)
    0x08003132   0x08003132   0x00000014   Code   RO          963    x$fpl$frsb          fz_ws.l(faddsub_clz.o)
    0x08003146   0x08003146   0x00000002   PAD
    0x08003148   0x08003148   0x000000ea   Code   RO          964    x$fpl$fsub          fz_ws.l(faddsub_clz.o)
    0x08003232   0x08003232   0x00000064   Code   RO         1108    x$fpl$retnan        fz_ws.l(retnan.o)
    0x08003296   0x08003296   0x0000005c   Code   RO         1037    x$fpl$scalbn        fz_ws.l(scalbn.o)
    0x080032f2   0x080032f2   0x00000030   Code   RO         1157    x$fpl$trapveneer    fz_ws.l(trapv.o)
    0x08003322   0x08003322   0x00000000   Code   RO         1039    x$fpl$usenofp       fz_ws.l(usenofp.o)
    0x08003322   0x08003322   0x000005f0   Data   RO          782    .constdata          ml_oled.o
    0x08003912   0x08003912   0x00000006   PAD
    0x08003918   0x08003918   0x00000098   Data   RO          994    .constdata          m_ws.l(atan.o)
    0x080039b0   0x080039b0   0x00000008   Data   RO         1058    .constdata          m_ws.l(qnan.o)
    0x080039b8   0x080039b8   0x00000020   Data   RO         1232    Region$$Table       anon$$obj.o


    Execution Region RW_IRAM1 (Exec base: 0x20000000, Load base: 0x080039d8, Size: 0x00000800, Max: 0x00005000, ABSOLUTE)

    Exec Addr    Load Addr    Size         Type   Attr      Idx    E Section Name        Object

    0x20000000   0x080039d8   0x00000010   Data   RW          183    .data               motor.o
    0x20000010   0x080039e8   0x00000090   Data   RW          301    .data               filter.o
    0x200000a0   0x08003a78   0x0000000c   Data   RW          375    .data               ml_gpio.o
    0x200000ac   0x08003a84   0x0000000c   Data   RW          531    .data               ml_tim.o
    0x200000b8   0x08003a90   0x00000010   Data   RW          560    .data               ml_uart.o
    0x200000c8   0x08003aa0   0x00000030   Data   RW          670    .data               ml_mpu6050.o
    0x200000f8   0x08003ad0   0x0000000c   Data   RW          892    .data               ml_hmc5883l.o
    0x20000104        -       0x0000009c   Zero   RW          225    .bss                pid.o
    0x200001a0        -       0x00000060   Zero   RW         1094    .bss                c_w.l(libspace.o)
    0x20000200        -       0x00000200   Zero   RW          365    HEAP                startup_stm32f10x_md.o
    0x20000400        -       0x00000400   Zero   RW          364    STACK               startup_stm32f10x_md.o


==============================================================================

Image component sizes


      Code (inc. data)   RO Data    RW Data    ZI Data      Debug   Object Name

       320          0          0        144          0       1826   filter.o
        84          0          0          0          0        452   gray_track.o
      1210        164          0          0          0       4958   isr.o
       168         24          0          0          0     206631   main.o
        70          0          0          0          0        922   ml_delay.o
       596         38          0          0          0       1428   ml_exti.o
       520         22          0         12          0       4871   ml_gpio.o
       234         14          0         12          0       2436   ml_hmc5883l.o
       334          0          0          0          0       3382   ml_i2c.o
       346         24          0         48          0       2801   ml_mpu6050.o
       116         16          0          0          0       1088   ml_nvic.o
       714          6       1520          0          0       6959   ml_oled.o
       816         36          0          0          0       1955   ml_pwm.o
       112          8          0         12          0       1572   ml_tim.o
       350         26          0         16          0       4168   ml_uart.o
       224         12          0         16          0       2220   motor.o
       568         58          0          0        156       3783   pid.o
        64         26        236          0       1536        796   startup_stm32f10x_md.o
       328         28          0          0          0       1841   system_stm32f10x.o

    ----------------------------------------------------------------------
      7188        502       1794        260       1692     254089   Object Totals
         0          0         32          0          0          0   (incl. Generated)
        14          0          6          0          0          0   (incl. Padding)

    ----------------------------------------------------------------------

      Code (inc. data)   RO Data    RW Data    ZI Data      Debug   Library Member Name

         8          0          0          0          0         68   __main.o
         0          0          0          0          0          0   __rtentry.o
        12          0          0          0          0          0   __rtentry2.o
         6          0          0          0          0          0   __rtentry4.o
        52          8          0          0          0          0   __scatter.o
        26          0          0          0          0          0   __scatter_copy.o
        28          0          0          0          0          0   __scatter_zi.o
        18          0          0          0          0         80   exit.o
         6          0          0          0          0        152   heapauxi.o
         2          0          0          0          0          0   libinit.o
         2          0          0          0          0          0   libinit2.o
         2          0          0          0          0          0   libshutdown.o
         2          0          0          0          0          0   libshutdown2.o
         8          4          0          0         96         68   libspace.o
         2          0          0          0          0          0   rtexit.o
        10          0          0          0          0          0   rtexit2.o
        74          0          0          0          0         80   sys_stackheap_outer.o
         2          0          0          0          0         68   use_no_semi.o
         2          0          0          0          0         68   use_no_semi_2.o
        98          4          0          0          0         92   d2f.o
       826         16          0          0          0        348   daddsub_clz.o
        16          4          0          0          0         68   dcheck1.o
       688        140          0          0          0        208   ddiv.o
        84          0          0          0          0        136   dflt_clz.o
       340         12          0          0          0        104   dmul.o
       156          4          0          0          0         92   dnaninf.o
        12          0          0          0          0         68   dretinf.o
        86          4          0          0          0         84   f2d.o
       450          8          0          0          0        236   faddsub_clz.o
        24          0          0          0          0         68   fcmpi.o
       388         76          0          0          0         96   fdiv.o
        54          4          0          0          0         84   ffix.o
        62          4          0          0          0         84   ffixu.o
        86          0          0          0          0        136   fflt_clz.o
       104          4          0          0          0         84   fleqf.o
       258          4          0          0          0         84   fmul.o
       140          4          0          0          0         84   fnaninf.o
        10          0          0          0          0         68   fretinf.o
        98          0          0          0          0         68   frleqf.o
       100          0          0          0          0         68   retnan.o
        92          0          0          0          0         68   scalbn.o
        48          0          0          0          0         68   trapv.o
         0          0          0          0          0          0   usenofp.o
       544         70        152          0          0        124   atan.o
       384         38          0          0          0        144   atan2.o
        26          6          0          0          0        204   dunder.o
        40          0          0          0          0         68   fpclassify.o
       170          0          0          0          0         96   poly.o
         0          0          8          0          0          0   qnan.o

    ----------------------------------------------------------------------
      5666        414        160          0         96       3716   Library Totals
        20          0          0          0          0          0   (incl. Padding)

    ----------------------------------------------------------------------

      Code (inc. data)   RO Data    RW Data    ZI Data      Debug   Library Name

       262         12          0          0         96        584   c_w.l
      4220        288          0          0          0       2496   fz_ws.l
      1164        114        160          0          0        636   m_ws.l

    ----------------------------------------------------------------------
      5666        414        160          0         96       3716   Library Totals

    ----------------------------------------------------------------------

==============================================================================


      Code (inc. data)   RO Data    RW Data    ZI Data      Debug   

     12854        916       1954        260       1788     252289   Grand Totals
     12854        916       1954        260       1788     252289   ELF Image Totals
     12854        916       1954        260          0          0   ROM Totals

==============================================================================

    Total RO  Size (Code + RO Data)                14808 (  14.46kB)
    Total RW  Size (RW Data + ZI Data)              2048 (   2.00kB)
    Total ROM Size (Code + RO Data + RW Data)      15068 (  14.71kB)

==============================================================================

